{"abi":[{"type":"constructor","inputs":[{"name":"_implementation","type":"address","internalType":"address"}],"stateMutability":"nonpayable"},{"type":"function","name":"allVaults","inputs":[{"name":"","type":"uint256","internalType":"uint256"}],"outputs":[{"name":"","type":"address","internalType":"address"}],"stateMutability":"view"},{"type":"function","name":"deployVault","inputs":[{"name":"asset","type":"address","internalType":"address"},{"name":"name","type":"string","internalType":"string"},{"name":"symbol","type":"string","internalType":"string"},{"name":"admin","type":"address","internalType":"address"},{"name":"founder","type":"address","internalType":"address"},{"name":"founderFeeBps","type":"uint256","internalType":"uint256"},{"name":"performanceFeeBps","type":"uint256","internalType":"uint256"},{"name":"whitelistEnabled","type":"bool","internalType":"bool"},{"name":"maxTotalAssets","type":"uint256","internalType":"uint256"}],"outputs":[{"name":"","type":"address","internalType":"address"}],"stateMutability":"payable"},{"type":"function","name":"deploymentFee","inputs":[],"outputs":[{"name":"","type":"uint256","internalType":"uint256"}],"stateMutability":"view"},{"type":"function","name":"feeRecipient","inputs":[],"outputs":[{"name":"","type":"address","internalType":"address"}],"stateMutability":"view"},{"type":"function","name":"getUserVaults","inputs":[{"name":"user","type":"address","internalType":"address"}],"outputs":[{"name":"","type":"address[]","internalType":"address[]"}],"stateMutability":"view"},{"type":"function","name":"getVaultsCount","inputs":[],"outputs":[{"name":"","type":"uint256","internalType":"uint256"}],"stateMutability":"view"},{"type":"function","name":"implementation","inputs":[],"outputs":[{"name":"","type":"address","internalType":"address"}],"stateMutability":"view"},{"type":"function","name":"owner","inputs":[],"outputs":[{"name":"","type":"address","internalType":"address"}],"stateMutability":"view"},{"type":"function","name":"renounceOwnership","inputs":[],"outputs":[],"stateMutability":"nonpayable"},{"type":"function","name":"setDeploymentFee","inputs":[{"name":"_newFee","type":"uint256","internalType":"uint256"}],"outputs":[],"stateMutability":"nonpayable"},{"type":"function","name":"setFeeRecipient","inputs":[{"name":"_newRecipient","type":"address","internalType":"address"}],"outputs":[],"stateMutability":"nonpayable"},{"type":"function","name":"setVaultFounderFee","inputs":[{"name":"vault","type":"address","internalType":"address"},{"name":"newFeeBps","type":"uint256","internalType":"uint256"}],"outputs":[],"stateMutability":"nonpayable"},{"type":"function","name":"transferOwnership","inputs":[{"name":"newOwner","type":"address","internalType":"address"}],"outputs":[],"stateMutability":"nonpayable"},{"type":"function","name":"vaultsByDeployer","inputs":[{"name":"","type":"address","internalType":"address"},{"name":"","type":"uint256","internalType":"uint256"}],"outputs":[{"name":"","type":"address","internalType":"address"}],"stateMutability":"view"},{"type":"event","name":"DeploymentFeeUpdated","inputs":[{"name":"newFee","type":"uint256","indexed":false,"internalType":"uint256"}],"anonymous":false},{"type":"event","name":"FeeRecipientUpdated","inputs":[{"name":"newRecipient","type":"address","indexed":false,"internalType":"address"}],"anonymous":false},{"type":"event","name":"OwnershipTransferred","inputs":[{"name":"previousOwner","type":"address","indexed":true,"internalType":"address"},{"name":"newOwner","type":"address","indexed":true,"internalType":"address"}],"anonymous":false},{"type":"event","name":"VaultDeployed","inputs":[{"name":"vault","type":"address","indexed":true,"internalType":"address"},{"name":"admin","type":"address","indexed":true,"internalType":"address"},{"name":"name","type":"string","indexed":false,"internalType":"string"},{"name":"symbol","type":"string","indexed":false,"internalType":"string"}],"anonymous":false},{"type":"error","name":"FailedDeployment","inputs":[]},{"type":"error","name":"InsufficientBalance","inputs":[{"name":"balance","type":"uint256","internalType":"uint256"},{"name":"needed","type":"uint256","internalType":"uint256"}]},{"type":"error","name":"OwnableInvalidOwner","inputs":[{"name":"owner","type":"address","internalType":"address"}]},{"type":"error","name":"OwnableUnauthorizedAccount","inputs":[{"name":"account","type":"address","internalType":"address"}]}],"bytecode":{"object":"0x60a060405266b1a2bc2ec5000060025534801561001a575f80fd5b50604051610d10380380610d10833981016040819052610039916100da565b338061005e57604051631e4fbdf760e01b81525f600482015260240160405180910390fd5b6100678161008b565b506001600160a01b0316608052600380546001600160a01b03191633179055610107565b5f80546001600160a01b038381166001600160a01b0319831681178455604051919092169283917f8be0079c531659141344cd1fd0a4f28419497f9722a3daafe3b4186f6b6457e09190a35050565b5f602082840312156100ea575f80fd5b81516001600160a01b0381168114610100575f80fd5b9392505050565b608051610bea6101265f395f818161012a01526103e20152610bea5ff3fe6080604052600436106100d9575f3560e01c8063b9b658db1161007c578063e74b981b11610057578063e74b981b1461022b578063e7f3c69c1461024a578063f2cff57f14610276578063f2fde38b1461028b575f80fd5b8063b9b658db146101cf578063d002462b146101ed578063d2ff20621461020c575f80fd5b806377aeaa60116100b757806377aeaa60146101625780637e880c8a146101755780638da5cb5b146101945780639094a91e146101b0575f80fd5b806346904840146100dd5780635c60da1b14610119578063715018a61461014c575b5f80fd5b3480156100e8575f80fd5b506003546100fc906001600160a01b031681565b6040516001600160a01b0390911681526020015b60405180910390f35b348015610124575f80fd5b506100fc7f000000000000000000000000000000000000000000000000000000000000000081565b348015610157575f80fd5b506101606102aa565b005b6100fc61017036600461096a565b6102bd565b348015610180575f80fd5b506100fc61018f366004610a2e565b61058b565b34801561019f575f80fd5b505f546001600160a01b03166100fc565b3480156101bb575f80fd5b506100fc6101ca366004610a56565b6105bf565b3480156101da575f80fd5b506001545b604051908152602001610110565b3480156101f8575f80fd5b50610160610207366004610a56565b6105e7565b348015610217575f80fd5b50610160610226366004610a2e565b61062b565b348015610236575f80fd5b50610160610245366004610a6d565b61068c565b348015610255575f80fd5b50610269610264366004610a6d565b6106e2565b6040516101109190610a8d565b348015610281575f80fd5b506101df60025481565b348015610296575f80fd5b506101606102a5366004610a6d565b610755565b6102b2610792565b6102bb5f6107be565b565b5f80546001600160a01b031633146103dc576002543410156103265760405162461bcd60e51b815260206004820152601b60248201527f496e73756666696369656e74206465706c6f796d656e7420666565000000000060448201526064015b60405180910390fd5b5f3411801561033f57506003546001600160a01b031615155b156103dc576003546040515f916001600160a01b03169034908381818185875af1925050503d805f811461038e576040519150601f19603f3d011682016040523d82523d5f602084013e610393565b606091505b50509050806103da5760405162461bcd60e51b8152602060048201526013602482015272119959481d1c985b9cd9995c8819985a5b1959606a1b604482015260640161031d565b505b5f6104067f000000000000000000000000000000000000000000000000000000000000000061080d565b60405163a65075b360e01b81529091506001600160a01b0382169063a65075b390610443908e908e908e908e908e908e908e908e90600401610b1c565b5f604051808303815f87803b15801561045a575f80fd5b505af115801561046c573d5f803e3d5ffd5b505050505f8311156104ce5760405163bc2e47b760e01b8152600481018490526001600160a01b0382169063bc2e47b7906024015f604051808303815f87803b1580156104b7575f80fd5b505af11580156104c9573d5f803e3d5ffd5b505050505b6001805480820182557fb10e2d527612073b26eecdfd717e6a320cf44b4afac2b0732d9fcbe2b7fa0cf60180546001600160a01b038085166001600160a01b03199283168117909355335f9081526004602090815260408083208054978801815583529120909401805490921683179091559151918a16917ffd7439309318fc0abb0976e1dddf30d112c3b5c6f4438cca5ee7f70342f97f5990610575908e908e90610b87565b60405180910390a39a9950505050505050505050565b6004602052815f5260405f2081815481106105a4575f80fd5b5f918252602090912001546001600160a01b03169150829050565b600181815481106105ce575f80fd5b5f918252602090912001546001600160a01b0316905081565b6105ef610792565b60028190556040518181527f40bd824d588484917db8fa4fc894c1e0feae5a75885290ba7b97521cebf82a80906020015b60405180910390a150565b610633610792565b60405163b9d7bd3360e01b8152600481018290526001600160a01b0383169063b9d7bd33906024015f604051808303815f87803b158015610672575f80fd5b505af1158015610684573d5f803e3d5ffd5b505050505050565b610694610792565b600380546001600160a01b0319166001600160a01b0383169081179091556040519081527f7a7b5a0a132f9e0581eb8527f66eae9ee89c2a3e79d4ac7e41a1f1f4d48a7fc290602001610620565b6001600160a01b0381165f9081526004602090815260409182902080548351818402810184019094528084526060939283018282801561074957602002820191905f5260205f20905b81546001600160a01b0316815260019091019060200180831161072b575b50505050509050919050565b61075d610792565b6001600160a01b03811661078657604051631e4fbdf760e01b81525f600482015260240161031d565b61078f816107be565b50565b5f546001600160a01b031633146102bb5760405163118cdaa760e01b815233600482015260240161031d565b5f80546001600160a01b038381166001600160a01b0319831681178455604051919092169283917f8be0079c531659141344cd1fd0a4f28419497f9722a3daafe3b4186f6b6457e09190a35050565b5f610818825f61081e565b92915050565b5f814710156108495760405163cf47918160e01b81524760048201526024810183905260440161031d565b763d602d80600a3d3981f3363d3d373d3d3d363d730000008360601b60e81c175f526e5af43d82803e903d91602b57fd5bf38360781b176020526037600983f090506001600160a01b0381166108185760405163b06ebf3d60e01b815260040160405180910390fd5b80356001600160a01b03811681146108c8575f80fd5b919050565b634e487b7160e01b5f52604160045260245ffd5b5f82601f8301126108f0575f80fd5b813567ffffffffffffffff8082111561090b5761090b6108cd565b604051601f8301601f19908116603f01168101908282118183101715610933576109336108cd565b8160405283815286602085880101111561094b575f80fd5b836020870160208301375f602085830101528094505050505092915050565b5f805f805f805f805f6101208a8c031215610983575f80fd5b61098c8a6108b2565b985060208a013567ffffffffffffffff808211156109a8575f80fd5b6109b48d838e016108e1565b995060408c01359150808211156109c9575f80fd5b506109d68c828d016108e1565b9750506109e560608b016108b2565b95506109f360808b016108b2565b945060a08a0135935060c08a0135925060e08a01358015158114610a15575f80fd5b809250506101008a013590509295985092959850929598565b5f8060408385031215610a3f575f80fd5b610a48836108b2565b946020939093013593505050565b5f60208284031215610a66575f80fd5b5035919050565b5f60208284031215610a7d575f80fd5b610a86826108b2565b9392505050565b602080825282518282018190525f9190848201906040850190845b81811015610acd5783516001600160a01b031683529284019291840191600101610aa8565b50909695505050505050565b5f81518084525f5b81811015610afd57602081850181015186830182015201610ae1565b505f602082860101526020601f19601f83011685010191505092915050565b6001600160a01b038981168252610100602083018190525f91610b418483018c610ad9565b91508382036040850152610b55828b610ad9565b98811660608501529690961660808301525060a081019390935260c0830191909152151560e090910152509392505050565b604081525f610b996040830185610ad9565b8281036020840152610bab8185610ad9565b9594505050505056fea26469706673582212201920f1affb5064eb2314ba3fe9c0d2a4b13c9dc486091e364d04953a5ad8e74664736f6c63430008180033","linkReferences":{}},"methodIdentifiers":{"allVaults(uint256)":"9094a91e","deployVault(address,string,string,address,address,uint256,uint256,bool,uint256)":"77aeaa60","deploymentFee()":"f2cff57f","feeRecipient()":"46904840","getUserVaults(address)":"e7f3c69c","getVaultsCount()":"b9b658db","implementation()":"5c60da1b","owner()":"8da5cb5b","renounceOwnership()":"715018a6","setDeploymentFee(uint256)":"d002462b","setFeeRecipient(address)":"e74b981b","setVaultFounderFee(address,uint256)":"d2ff2062","transferOwnership(address)":"f2fde38b","vaultsByDeployer(address,uint256)":"7e880c8a"},"id":65}