{"abi":[{"type":"constructor","inputs":[{"name":"asset_","type":"address","internalType":"contract IERC20"},{"name":"name_","type":"string","internalType":"string"},{"name":"symbol_","type":"string","internalType":"string"},{"name":"admin_","type":"address","internalType":"address"},{"name":"strategist_","type":"address","internalType":"address"},{"name":"exchangeDepositAddress_","type":"address","internalType":"address"}],"stateMutability":"nonpayable"},{"type":"function","name":"DEFAULT_ADMIN_ROLE","inputs":[],"outputs":[{"name":"","type":"bytes32","internalType":"bytes32"}],"stateMutability":"view"},{"type":"function","name":"PAUSER_ROLE","inputs":[],"outputs":[{"name":"","type":"bytes32","internalType":"bytes32"}],"stateMutability":"view"},{"type":"function","name":"STRATEGIST_ROLE","inputs":[],"outputs":[{"name":"","type":"bytes32","internalType":"bytes32"}],"stateMutability":"view"},{"type":"function","name":"allowance","inputs":[{"name":"owner","type":"address","internalType":"address"},{"name":"spender","type":"address","internalType":"address"}],"outputs":[{"name":"","type":"uint256","internalType":"uint256"}],"stateMutability":"view"},{"type":"function","name":"approve","inputs":[{"name":"spender","type":"address","internalType":"address"},{"name":"value","type":"uint256","internalType":"uint256"}],"outputs":[{"name":"","type":"bool","internalType":"bool"}],"stateMutability":"nonpayable"},{"type":"function","name":"asset","inputs":[],"outputs":[{"name":"","type":"address","internalType":"address"}],"stateMutability":"view"},{"type":"function","name":"balanceOf","inputs":[{"name":"account","type":"address","internalType":"address"}],"outputs":[{"name":"","type":"uint256","internalType":"uint256"}],"stateMutability":"view"},{"type":"function","name":"captureFounderWealth","inputs":[{"name":"grossYieldAmount","type":"uint256","internalType":"uint256"}],"outputs":[],"stateMutability":"nonpayable"},{"type":"function","name":"convertToAssets","inputs":[{"name":"shares","type":"uint256","internalType":"uint256"}],"outputs":[{"name":"","type":"uint256","internalType":"uint256"}],"stateMutability":"view"},{"type":"function","name":"convertToShares","inputs":[{"name":"assets","type":"uint256","internalType":"uint256"}],"outputs":[{"name":"","type":"uint256","internalType":"uint256"}],"stateMutability":"view"},{"type":"function","name":"decimals","inputs":[],"outputs":[{"name":"","type":"uint8","internalType":"uint8"}],"stateMutability":"view"},{"type":"function","name":"deposit","inputs":[{"name":"assets","type":"uint256","internalType":"uint256"},{"name":"receiver","type":"address","internalType":"address"}],"outputs":[{"name":"","type":"uint256","internalType":"uint256"}],"stateMutability":"nonpayable"},{"type":"function","name":"drawFromInsuranceFund","inputs":[{"name":"amount","type":"uint256","internalType":"uint256"}],"outputs":[],"stateMutability":"nonpayable"},{"type":"function","name":"exchangeDepositAddress","inputs":[],"outputs":[{"name":"","type":"address","internalType":"address"}],"stateMutability":"view"},{"type":"function","name":"founder","inputs":[],"outputs":[{"name":"","type":"address","internalType":"address"}],"stateMutability":"view"},{"type":"function","name":"founderFeeBps","inputs":[],"outputs":[{"name":"","type":"uint256","internalType":"uint256"}],"stateMutability":"view"},{"type":"function","name":"getExchangeDepositAddress","inputs":[],"outputs":[{"name":"","type":"address","internalType":"address"}],"stateMutability":"view"},{"type":"function","name":"getProjectedAPY","inputs":[],"outputs":[{"name":"","type":"uint256","internalType":"uint256"}],"stateMutability":"view"},{"type":"function","name":"getRoleAdmin","inputs":[{"name":"role","type":"bytes32","internalType":"bytes32"}],"outputs":[{"name":"","type":"bytes32","internalType":"bytes32"}],"stateMutability":"view"},{"type":"function","name":"getSolvencyRatio","inputs":[],"outputs":[{"name":"","type":"uint256","internalType":"uint256"}],"stateMutability":"view"},{"type":"function","name":"grantRole","inputs":[{"name":"role","type":"bytes32","internalType":"bytes32"},{"name":"account","type":"address","internalType":"address"}],"outputs":[],"stateMutability":"nonpayable"},{"type":"function","name":"grossPerformanceFeeBps","inputs":[],"outputs":[{"name":"","type":"uint256","internalType":"uint256"}],"stateMutability":"view"},{"type":"function","name":"hasRole","inputs":[{"name":"role","type":"bytes32","internalType":"bytes32"},{"name":"account","type":"address","internalType":"address"}],"outputs":[{"name":"","type":"bool","internalType":"bool"}],"stateMutability":"view"},{"type":"function","name":"hedgingReserve","inputs":[],"outputs":[{"name":"","type":"uint256","internalType":"uint256"}],"stateMutability":"view"},{"type":"function","name":"initialize","inputs":[{"name":"asset_","type":"address","internalType":"address"},{"name":"name_","type":"string","internalType":"string"},{"name":"symbol_","type":"string","internalType":"string"},{"name":"admin_","type":"address","internalType":"address"},{"name":"founder_","type":"address","internalType":"address"},{"name":"founderFeeBps_","type":"uint256","internalType":"uint256"},{"name":"performanceFeeBps_","type":"uint256","internalType":"uint256"},{"name":"whitelistEnabled_","type":"bool","internalType":"bool"}],"outputs":[],"stateMutability":"nonpayable"},{"type":"function","name":"insuranceFund","inputs":[],"outputs":[{"name":"","type":"address","internalType":"address"}],"stateMutability":"view"},{"type":"function","name":"insuranceFundBalance","inputs":[],"outputs":[{"name":"","type":"uint256","internalType":"uint256"}],"stateMutability":"view"},{"type":"function","name":"insuranceFundBps","inputs":[],"outputs":[{"name":"","type":"uint256","internalType":"uint256"}],"stateMutability":"view"},{"type":"function","name":"lastReportedTimestamp","inputs":[],"outputs":[{"name":"","type":"uint256","internalType":"uint256"}],"stateMutability":"view"},{"type":"function","name":"maxDeposit","inputs":[{"name":"receiver","type":"address","internalType":"address"}],"outputs":[{"name":"","type":"uint256","internalType":"uint256"}],"stateMutability":"view"},{"type":"function","name":"maxMint","inputs":[{"name":"receiver","type":"address","internalType":"address"}],"outputs":[{"name":"","type":"uint256","internalType":"uint256"}],"stateMutability":"view"},{"type":"function","name":"maxRedeem","inputs":[{"name":"owner","type":"address","internalType":"address"}],"outputs":[{"name":"","type":"uint256","internalType":"uint256"}],"stateMutability":"view"},{"type":"function","name":"maxTotalAssets","inputs":[],"outputs":[{"name":"","type":"uint256","internalType":"uint256"}],"stateMutability":"view"},{"type":"function","name":"maxWithdraw","inputs":[{"name":"owner","type":"address","internalType":"address"}],"outputs":[{"name":"","type":"uint256","internalType":"uint256"}],"stateMutability":"view"},{"type":"function","name":"mint","inputs":[{"name":"shares","type":"uint256","internalType":"uint256"},{"name":"receiver","type":"address","internalType":"address"}],"outputs":[{"name":"","type":"uint256","internalType":"uint256"}],"stateMutability":"nonpayable"},{"type":"function","name":"name","inputs":[],"outputs":[{"name":"","type":"string","internalType":"string"}],"stateMutability":"view"},{"type":"function","name":"offChainAssets","inputs":[],"outputs":[{"name":"","type":"uint256","internalType":"uint256"}],"stateMutability":"view"},{"type":"function","name":"pause","inputs":[],"outputs":[],"stateMutability":"nonpayable"},{"type":"function","name":"paused","inputs":[],"outputs":[{"name":"","type":"bool","internalType":"bool"}],"stateMutability":"view"},{"type":"function","name":"previewDeposit","inputs":[{"name":"assets","type":"uint256","internalType":"uint256"}],"outputs":[{"name":"","type":"uint256","internalType":"uint256"}],"stateMutability":"view"},{"type":"function","name":"previewMint","inputs":[{"name":"shares","type":"uint256","internalType":"uint256"}],"outputs":[{"name":"","type":"uint256","internalType":"uint256"}],"stateMutability":"view"},{"type":"function","name":"previewRedeem","inputs":[{"name":"shares","type":"uint256","internalType":"uint256"}],"outputs":[{"name":"","type":"uint256","internalType":"uint256"}],"stateMutability":"view"},{"type":"function","name":"previewWithdraw","inputs":[{"name":"assets","type":"uint256","internalType":"uint256"}],"outputs":[{"name":"","type":"uint256","internalType":"uint256"}],"stateMutability":"view"},{"type":"function","name":"primeAccounts","inputs":[{"name":"","type":"address","internalType":"address"}],"outputs":[{"name":"active","type":"bool","internalType":"bool"}],"stateMutability":"view"},{"type":"function","name":"projectedAPY","inputs":[],"outputs":[{"name":"","type":"uint256","internalType":"uint256"}],"stateMutability":"view"},{"type":"function","name":"redeem","inputs":[{"name":"shares","type":"uint256","internalType":"uint256"},{"name":"receiver","type":"address","internalType":"address"},{"name":"owner","type":"address","internalType":"address"}],"outputs":[{"name":"","type":"uint256","internalType":"uint256"}],"stateMutability":"nonpayable"},{"type":"function","name":"renounceRole","inputs":[{"name":"role","type":"bytes32","internalType":"bytes32"},{"name":"callerConfirmation","type":"address","internalType":"address"}],"outputs":[],"stateMutability":"nonpayable"},{"type":"function","name":"returnFromPrime","inputs":[{"name":"amount","type":"uint256","internalType":"uint256"}],"outputs":[],"stateMutability":"nonpayable"},{"type":"function","name":"revokeRole","inputs":[{"name":"role","type":"bytes32","internalType":"bytes32"},{"name":"account","type":"address","internalType":"address"}],"outputs":[],"stateMutability":"nonpayable"},{"type":"function","name":"setFounder","inputs":[{"name":"_founder","type":"address","internalType":"address"}],"outputs":[],"stateMutability":"nonpayable"},{"type":"function","name":"setFounderFee","inputs":[{"name":"bps","type":"uint256","internalType":"uint256"}],"outputs":[],"stateMutability":"nonpayable"},{"type":"function","name":"setInsuranceFund","inputs":[{"name":"_insuranceFund","type":"address","internalType":"address"}],"outputs":[],"stateMutability":"nonpayable"},{"type":"function","name":"setInsuranceFundBps","inputs":[{"name":"bps","type":"uint256","internalType":"uint256"}],"outputs":[],"stateMutability":"nonpayable"},{"type":"function","name":"setMaxTotalAssets","inputs":[{"name":"_maxTotalAssets","type":"uint256","internalType":"uint256"}],"outputs":[],"stateMutability":"nonpayable"},{"type":"function","name":"setPerformanceFee","inputs":[{"name":"bps","type":"uint256","internalType":"uint256"}],"outputs":[],"stateMutability":"nonpayable"},{"type":"function","name":"setTreasury","inputs":[{"name":"_treasury","type":"address","internalType":"address"}],"outputs":[],"stateMutability":"nonpayable"},{"type":"function","name":"setWhitelistEnabled","inputs":[{"name":"enabled","type":"bool","internalType":"bool"}],"outputs":[],"stateMutability":"nonpayable"},{"type":"function","name":"setWhitelisted","inputs":[{"name":"account","type":"address","internalType":"address"},{"name":"status","type":"bool","internalType":"bool"}],"outputs":[],"stateMutability":"nonpayable"},{"type":"function","name":"supportsInterface","inputs":[{"name":"interfaceId","type":"bytes4","internalType":"bytes4"}],"outputs":[{"name":"","type":"bool","internalType":"bool"}],"stateMutability":"view"},{"type":"function","name":"sweepToExchange","inputs":[{"name":"amount","type":"uint256","internalType":"uint256"}],"outputs":[],"stateMutability":"nonpayable"},{"type":"function","name":"symbol","inputs":[],"outputs":[{"name":"","type":"string","internalType":"string"}],"stateMutability":"view"},{"type":"function","name":"totalAssets","inputs":[],"outputs":[{"name":"","type":"uint256","internalType":"uint256"}],"stateMutability":"view"},{"type":"function","name":"totalSupply","inputs":[],"outputs":[{"name":"","type":"uint256","internalType":"uint256"}],"stateMutability":"view"},{"type":"function","name":"transfer","inputs":[{"name":"to","type":"address","internalType":"address"},{"name":"value","type":"uint256","internalType":"uint256"}],"outputs":[{"name":"","type":"bool","internalType":"bool"}],"stateMutability":"nonpayable"},{"type":"function","name":"transferFrom","inputs":[{"name":"from","type":"address","internalType":"address"},{"name":"to","type":"address","internalType":"address"},{"name":"value","type":"uint256","internalType":"uint256"}],"outputs":[{"name":"","type":"bool","internalType":"bool"}],"stateMutability":"nonpayable"},{"type":"function","name":"transferToPrime","inputs":[{"name":"prime","type":"address","internalType":"address"},{"name":"amount","type":"uint256","internalType":"uint256"}],"outputs":[],"stateMutability":"nonpayable"},{"type":"function","name":"treasury","inputs":[],"outputs":[{"name":"","type":"address","internalType":"address"}],"stateMutability":"view"},{"type":"function","name":"unpause","inputs":[],"outputs":[],"stateMutability":"nonpayable"},{"type":"function","name":"updateHedgingReserve","inputs":[{"name":"amount","type":"uint256","internalType":"uint256"}],"outputs":[],"stateMutability":"nonpayable"},{"type":"function","name":"updateOffChainAssets","inputs":[{"name":"amount","type":"uint256","internalType":"uint256"}],"outputs":[],"stateMutability":"nonpayable"},{"type":"function","name":"updateProjectedAPY","inputs":[{"name":"_projectedAPY","type":"uint256","internalType":"uint256"}],"outputs":[],"stateMutability":"nonpayable"},{"type":"function","name":"whitelistEnabled","inputs":[],"outputs":[{"name":"","type":"bool","internalType":"bool"}],"stateMutability":"view"},{"type":"function","name":"whitelisted","inputs":[{"name":"","type":"address","internalType":"address"}],"outputs":[{"name":"","type":"bool","internalType":"bool"}],"stateMutability":"view"},{"type":"function","name":"withdraw","inputs":[{"name":"assets","type":"uint256","internalType":"uint256"},{"name":"receiver","type":"address","internalType":"address"},{"name":"owner","type":"address","internalType":"address"}],"outputs":[{"name":"","type":"uint256","internalType":"uint256"}],"stateMutability":"nonpayable"},{"type":"event","name":"Approval","inputs":[{"name":"owner","type":"address","indexed":true,"internalType":"address"},{"name":"spender","type":"address","indexed":true,"internalType":"address"},{"name":"value","type":"uint256","indexed":false,"internalType":"uint256"}],"anonymous":false},{"type":"event","name":"Deposit","inputs":[{"name":"sender","type":"address","indexed":true,"internalType":"address"},{"name":"owner","type":"address","indexed":true,"internalType":"address"},{"name":"assets","type":"uint256","indexed":false,"internalType":"uint256"},{"name":"shares","type":"uint256","indexed":false,"internalType":"uint256"}],"anonymous":false},{"type":"event","name":"FundsSwept","inputs":[{"name":"amount","type":"uint256","indexed":false,"internalType":"uint256"},{"name":"destination","type":"address","indexed":false,"internalType":"address"}],"anonymous":false},{"type":"event","name":"OffChainAssetsUpdated","inputs":[{"name":"oldAmount","type":"uint256","indexed":false,"internalType":"uint256"},{"name":"newAmount","type":"uint256","indexed":false,"internalType":"uint256"},{"name":"timestamp","type":"uint256","indexed":false,"internalType":"uint256"}],"anonymous":false},{"type":"event","name":"Paused","inputs":[{"name":"account","type":"address","indexed":false,"internalType":"address"}],"anonymous":false},{"type":"event","name":"RoleAdminChanged","inputs":[{"name":"role","type":"bytes32","indexed":true,"internalType":"bytes32"},{"name":"previousAdminRole","type":"bytes32","indexed":true,"internalType":"bytes32"},{"name":"newAdminRole","type":"bytes32","indexed":true,"internalType":"bytes32"}],"anonymous":false},{"type":"event","name":"RoleGranted","inputs":[{"name":"role","type":"bytes32","indexed":true,"internalType":"bytes32"},{"name":"account","type":"address","indexed":true,"internalType":"address"},{"name":"sender","type":"address","indexed":true,"internalType":"address"}],"anonymous":false},{"type":"event","name":"RoleRevoked","inputs":[{"name":"role","type":"bytes32","indexed":true,"internalType":"bytes32"},{"name":"account","type":"address","indexed":true,"internalType":"address"},{"name":"sender","type":"address","indexed":true,"internalType":"address"}],"anonymous":false},{"type":"event","name":"Transfer","inputs":[{"name":"from","type":"address","indexed":true,"internalType":"address"},{"name":"to","type":"address","indexed":true,"internalType":"address"},{"name":"value","type":"uint256","indexed":false,"internalType":"uint256"}],"anonymous":false},{"type":"event","name":"Unpaused","inputs":[{"name":"account","type":"address","indexed":false,"internalType":"address"}],"anonymous":false},{"type":"event","name":"Withdraw","inputs":[{"name":"sender","type":"address","indexed":true,"internalType":"address"},{"name":"receiver","type":"address","indexed":true,"internalType":"address"},{"name":"owner","type":"address","indexed":true,"internalType":"address"},{"name":"assets","type":"uint256","indexed":false,"internalType":"uint256"},{"name":"shares","type":"uint256","indexed":false,"internalType":"uint256"}],"anonymous":false},{"type":"error","name":"AccessControlBadConfirmation","inputs":[]},{"type":"error","name":"AccessControlUnauthorizedAccount","inputs":[{"name":"account","type":"address","internalType":"address"},{"name":"neededRole","type":"bytes32","internalType":"bytes32"}]},{"type":"error","name":"ERC20InsufficientAllowance","inputs":[{"name":"spender","type":"address","internalType":"address"},{"name":"allowance","type":"uint256","internalType":"uint256"},{"name":"needed","type":"uint256","internalType":"uint256"}]},{"type":"error","name":"ERC20InsufficientBalance","inputs":[{"name":"sender","type":"address","internalType":"address"},{"name":"balance","type":"uint256","internalType":"uint256"},{"name":"needed","type":"uint256","internalType":"uint256"}]},{"type":"error","name":"ERC20InvalidApprover","inputs":[{"name":"approver","type":"address","internalType":"address"}]},{"type":"error","name":"ERC20InvalidReceiver","inputs":[{"name":"receiver","type":"address","internalType":"address"}]},{"type":"error","name":"ERC20InvalidSender","inputs":[{"name":"sender","type":"address","internalType":"address"}]},{"type":"error","name":"ERC20InvalidSpender","inputs":[{"name":"spender","type":"address","internalType":"address"}]},{"type":"error","name":"ERC4626ExceededMaxDeposit","inputs":[{"name":"receiver","type":"address","internalType":"address"},{"name":"assets","type":"uint256","internalType":"uint256"},{"name":"max","type":"uint256","internalType":"uint256"}]},{"type":"error","name":"ERC4626ExceededMaxMint","inputs":[{"name":"receiver","type":"address","internalType":"address"},{"name":"shares","type":"uint256","internalType":"uint256"},{"name":"max","type":"uint256","internalType":"uint256"}]},{"type":"error","name":"ERC4626ExceededMaxRedeem","inputs":[{"name":"owner","type":"address","internalType":"address"},{"name":"shares","type":"uint256","internalType":"uint256"},{"name":"max","type":"uint256","internalType":"uint256"}]},{"type":"error","name":"ERC4626ExceededMaxWithdraw","inputs":[{"name":"owner","type":"address","internalType":"address"},{"name":"assets","type":"uint256","internalType":"uint256"},{"name":"max","type":"uint256","internalType":"uint256"}]},{"type":"error","name":"EnforcedPause","inputs":[]},{"type":"error","name":"ExpectedPause","inputs":[]},{"type":"error","name":"ReentrancyGuardReentrantCall","inputs":[]},{"type":"error","name":"SafeERC20FailedOperation","inputs":[{"name":"token","type":"address","internalType":"address"}]}],"bytecode":{"object":"0x60e06040526103e86009556103e8600d553480156200001c575f80fd5b5060405162003972380380620039728339810160408190526200003f91620005e9565b85858560036200005083826200072d565b5060046200005f82826200072d565b5050505f806200007583620000e360201b60201c565b91509150816200008757601262000089565b805b60ff1660a05250506001600160a01b031660805260017f9b779b17422d0df92223018b32b4d1fa46e071723d6817e2486d003becc55f0055620000d78686868686865f806103e8816200017c565b50505050505062000819565b5f8080620000f060405190565b6040805160048152602481019091526020810180516001600160e01b0390811663313ce56760e01b179091529192505f9182916200013291889190620002d416565b5090925090506200014283604052565b81801562000151575060203d10155b80156200015f575060ff8111155b6200016c575f8062000170565b6001815b94509450505050915091565b6001600160a01b038716620001d85760405162461bcd60e51b815260206004820152601c60248201527f41646d696e2063616e6e6f74206265207a65726f20616464726573730000000060448201526064015b60405180910390fd5b6015620001e68a826200072d565b506016620001f589826200072d565b50620002025f88620002f5565b506200022f7f17a8e30262c1f919c33056d877a3c22b95c2f5e4dac44683c1c2323cd79fbdb087620002f5565b506200025c7f65d7a28e3265b37a6474929f336521b332c1681b933f6cb9f3376673440d862a88620002f5565b50600880546001600160a01b0319166001600160a01b038616179055600a83905581158015906200028f57506107d08211155b156200029b5760098290555b6010805460ff1916821515179055620002b360025490565b5f03620002c857620002c8876103e8620003a5565b50505050505050505050565b5f805f60405f855160208701885afa92505f51915060205190509250925092565b5f8281526005602090815260408083206001600160a01b038516845290915281205460ff166200039c575f8381526005602090815260408083206001600160a01b03861684529091529020805460ff19166001179055620003533390565b6001600160a01b0316826001600160a01b0316847f2f8788117e7eff1d82e926ec794901d17c78024a50270940304540a733656f0d60405160405180910390a45060016200039f565b505f5b92915050565b6001600160a01b038216620003d05760405163ec442f0560e01b81525f6004820152602401620001cf565b620003dd5f8383620003e1565b5050565b6001600160a01b0383166200040f578060025f828254620004039190620007f9565b90915550620004819050565b6001600160a01b0383165f9081526020819052604090205481811015620004635760405163391434e360e21b81526001600160a01b03851660048201526024810182905260448101839052606401620001cf565b6001600160a01b0384165f9081526020819052604090209082900390555b6001600160a01b0382166200049f57600280548290039055620004bd565b6001600160a01b0382165f9081526020819052604090208054820190555b816001600160a01b0316836001600160a01b03167fddf252ad1be2c89b69c2b068fc378daa952ba7f163c4a11628f55a4df523b3ef836040516200050391815260200190565b60405180910390a3505050565b6001600160a01b038116811462000525575f80fd5b50565b634e487b7160e01b5f52604160045260245ffd5b5f82601f8301126200054c575f80fd5b81516001600160401b038082111562000569576200056962000528565b604051601f8301601f19908116603f0116810190828211818310171562000594576200059462000528565b8160405283815260209250866020858801011115620005b1575f80fd5b5f91505b83821015620005d45785820183015181830184015290820190620005b5565b5f602085830101528094505050505092915050565b5f805f805f8060c08789031215620005ff575f80fd5b86516200060c8162000510565b60208801519096506001600160401b038082111562000629575f80fd5b620006378a838b016200053c565b965060408901519150808211156200064d575f80fd5b506200065c89828a016200053c565b94505060608701516200066f8162000510565b6080880151909350620006828162000510565b60a0880151909250620006958162000510565b809150509295509295509295565b600181811c90821680620006b857607f821691505b602082108103620006d757634e487b7160e01b5f52602260045260245ffd5b50919050565b601f8211156200072857805f5260205f20601f840160051c81016020851015620007045750805b601f840160051c820191505b8181101562000725575f815560010162000710565b50505b505050565b81516001600160401b0381111562000749576200074962000528565b62000761816200075a8454620006a3565b84620006dd565b602080601f83116001811462000797575f84156200077f5750858301515b5f19600386901b1c1916600185901b178555620007f1565b5f85815260208120601f198616915b82811015620007c757888601518255948401946001909101908401620007a6565b5085821015620007e557878501515f19600388901b60f8161c191681555b505060018460011b0185555b505050505050565b808201808211156200039f57634e487b7160e01b5f52601160045260245ffd5b60805160a05160c0516130d36200089f5f395f81816105750152818161061801528181610cb40152610d1401525f610e3b01525f81816105ef01528181610b5601528181610d88015281816110f1015281816115e80152818161164e01528181611858015281816119bc01528181611cc9015281816126c401526127aa01526130d35ff3fe608060405234801561000f575f80fd5b506004361061042d575f3560e01c80637f513e631161022c578063bc2e47b711610135578063d820f492116100bf578063e1aec3de11610084578063e1aec3de14610975578063e63ab1e91461097e578063ef8b30f7146108a1578063f0f44260146109a5578063fefa625f146109b8575f80fd5b8063d820f492146108ec578063d905777e146108f5578063d936547e14610908578063dd62ed3e1461092a578063de50e43714610962575f80fd5b8063c6e6f59211610105578063c6e6f592146108a1578063cb0ee680146108b4578063cbde2cdc146108bd578063ce96cb77146108c6578063d547741f146108d9575f80fd5b8063bc2e47b714610860578063c3c0529314610873578063c63936e714610886578063c63d75b61461088e575f80fd5b8063a378a324116101b6578063b460af9411610186578063b460af941461080b578063b79023031461081e578063b9d7bd3314610831578063ba08765214610844578063ba9312a814610857575f80fd5b8063a378a324146107be578063a65075b3146107d2578063a9059cbb146107e5578063b3d7f6b9146107f8575f80fd5b80639281aa0b116101fc5780639281aa0b1461077657806394bf804d1461078957806395d89b411461079c57806396d0d174146107a4578063a217fddf146107b7575f80fd5b80637f513e63146107355780638456cb59146107485780638b7886221461075057806391d1485414610763575f80fd5b806336568abe1161033957806351fb012d116102c35780636fef958a116102885780636fef958a146106cb57806370897b23146106de57806370a08231146106f1578063792f9683146107195780637a341bc714610722575f80fd5b806351fb012d146106845780635c975abb1461069157806361d027b31461069c5780636c9a9fb0146106af5780636e553f65146106b8575f80fd5b80633f4ba83a116103095780633f4ba83a14610643578063402d267d1461064b5780634cdad506146104995780634d853ee51461065e5780634ee0764914610671575f80fd5b806336568abe146105da57806338d52e0f146105ed5780633d9524cb146106135780633dbc645d1461063a575f80fd5b806317881aac116103ba5780632736d5711161038a5780632736d5711461054d57806328833a9f146105605780632eaa41d1146105735780632f2ff15d146105ad578063313ce567146105c0575f80fd5b806317881aac1461050757806318160ddd1461051057806323b872dd14610518578063248a9ca31461052b575f80fd5b806307a2d13a1161040057806307a2d13a1461049957806308fe7d7f146104ac578063095ea7b3146104bf5780630a28a477146104d2578063165c29e5146104e5575f80fd5b806301e1d1141461043157806301ffc9a71461044c578063052d9e7e1461046f57806306fdde0314610484575b5f80fd5b6104396109c0565b6040519081526020015b60405180910390f35b61045f61045a366004612974565b6109e8565b6040519015158152602001610443565b61048261047d3660046129a8565b610a1e565b005b61048c610a3c565b60405161044391906129e5565b6104396104a7366004612a17565b610ae9565b6104826104ba366004612a17565b610af4565b61045f6104cd366004612a49565b610b96565b6104396104e0366004612a17565b610bad565b61045f6104f3366004612a71565b60176020525f908152604090205460ff1681565b610439600e5481565b600254610439565b61045f610526366004612a8a565b610bb9565b610439610539366004612a17565b5f9081526005602052604090206001015490565b61048261055b366004612a17565b610bde565b61048261056e366004612a17565b610c48565b7f00000000000000000000000000000000000000000000000000000000000000005b6040516001600160a01b039091168152602001610443565b6104826105bb366004612ac3565b610e0a565b6105c8610e34565b60405160ff9091168152602001610443565b6104826105e8366004612ac3565b610e5f565b7f0000000000000000000000000000000000000000000000000000000000000000610595565b6105957f000000000000000000000000000000000000000000000000000000000000000081565b610439600b5481565b610482610e97565b610439610659366004612a71565b610ea9565b600854610595906001600160a01b031681565b61048261067f366004612a17565b610f3a565b60105461045f9060ff1681565b60065460ff1661045f565b601454610595906001600160a01b031681565b610439600f5481565b6104396106c6366004612ac3565b610f5b565b6104826106d9366004612a49565b611050565b6104826106ec366004612a17565b61112d565b6104396106ff366004612a71565b6001600160a01b03165f9081526020819052604090205490565b610439600a5481565b610482610730366004612a71565b61117e565b610482610743366004612a17565b611201565b61048261121e565b61048261075e366004612a17565b611250565b61045f610771366004612ac3565b611397565b610482610784366004612aed565b6113c1565b610439610797366004612ac3565b6113f6565b61048c611500565b6104826107b2366004612a17565b61152c565b6104395f81565b6104395f8051602061305e83398151915281565b6104826107e0366004612bbf565b6117c8565b61045f6107f3366004612a49565b611833565b610439610806366004612a17565b611840565b610439610819366004612c76565b61184c565b600c54610595906001600160a01b031681565b61048261083f366004612a17565b611938565b610439610852366004612c76565b6119a4565b61043960075481565b61048261086e366004612a17565b611aa5565b610482610881366004612a71565b611aed565b601354610439565b61043961089c366004612a71565b611b1a565b6104396108af366004612a17565b611b9f565b610439600d5481565b61043960095481565b6104396108d4366004612a71565b611baa565b6104826108e7366004612ac3565b611bb7565b61043960125481565b610439610903366004612a71565b611bdb565b61045f610916366004612a71565b60116020525f908152604090205460ff1681565b610439610938366004612caf565b6001600160a01b039182165f90815260016020908152604080832093909416825291909152205490565b610482610970366004612a17565b611bf8565b61043960135481565b6104397f65d7a28e3265b37a6474929f336521b332c1681b933f6cb9f3376673440d862a81565b6104826109b3366004612a71565b611c52565b610439611c7f565b5f600e546007546109cf611cc6565b6109d99190612ceb565b6109e39190612ceb565b905090565b5f6001600160e01b03198216637965db0b60e01b1480610a1857506301ffc9a760e01b6001600160e01b03198316145b92915050565b5f610a2881611d50565b506010805460ff1916911515919091179055565b60605f60158054610a4c90612cfe565b905011610a5b576109e3611d5a565b60158054610a6890612cfe565b80601f0160208091040260200160405190810160405280929190818152602001828054610a9490612cfe565b8015610adf5780601f10610ab657610100808354040283529160200191610adf565b820191905f5260205f20905b815481529060010190602001808311610ac257829003601f168201915b5050505050905090565b5f610a18825f611d69565b610afc611da1565b610b135f8051602061305e83398151915233611397565b80610b2c5750335f9081526017602052604090205460ff165b610b515760405162461bcd60e51b8152600401610b4890612d36565b60405180910390fd5b610b7d7f0000000000000000000000000000000000000000000000000000000000000000333084611dbc565b610b9360015f8051602061307e83398151915255565b50565b5f33610ba3818585611df2565b5060019392505050565b5f610a18826001611dff565b5f33610bc6858285611e2e565b610bd1858585611e91565b60019150505b9392505050565b5f8051602061305e833981519152610bf581611d50565b600780549083905542600f819055604080518381526020810186905280820192909252517ff763735ff81e09c9cdefbd8533319faa4bb0c253bf82065323e7fc36f2ab15409181900360600190a1505050565b5f610c5281611d50565b610c5a611da1565b610c62611eee565b5f8211610cb15760405162461bcd60e51b815260206004820181905260248201527f416d6f756e74206d7573742062652067726561746572207468616e207a65726f6044820152606401610b48565b5f7f00000000000000000000000000000000000000000000000000000000000000006001600160a01b0316610d12576014546001600160a01b0316610d01576008546001600160a01b0316610d34565b6014546001600160a01b0316610d34565b7f00000000000000000000000000000000000000000000000000000000000000005b90506001600160a01b038116610d835760405162461bcd60e51b815260206004820152601460248201527327379039bbb2b2b8103232b9ba34b730ba34b7b760611b6044820152606401610b48565b610dae7f00000000000000000000000000000000000000000000000000000000000000008285611f14565b604080518481526001600160a01b03831660208201527f8bd6cee8939c04b07fdaff7566e9c8cd94790d512c84969fd08f296557d56e08910160405180910390a150610e0660015f8051602061307e83398151915255565b5050565b5f82815260056020526040902060010154610e2481611d50565b610e2e8383611f49565b50505050565b5f6109e3817f0000000000000000000000000000000000000000000000000000000000000000612d5e565b6001600160a01b0381163314610e885760405163334bd91960e11b815260040160405180910390fd5b610e928282611fda565b505050565b5f610ea181611d50565b610b93612045565b5f610eb660065460ff1690565b15610ec257505f919050565b60105460ff168015610eec57506001600160a01b0382165f9081526011602052604090205460ff16155b15610ef857505f919050565b5f610f016109c0565b60125490915015610f3157601254811015610f295780601254610f249190612d77565b610bd7565b5f9392505050565b505f1992915050565b5f8051602061305e833981519152610f5181611d50565b50600e5542600f55565b5f610f64611eee565b60105460ff1615610fe5576001600160a01b0382165f9081526011602052604090205460ff1680610fa75750610fa75f8051602061305e83398151915233611397565b610fe55760405162461bcd60e51b815260206004820152600f60248201526e139bdd081dda1a5d195b1a5cdd1959608a1b6044820152606401610b48565b601254156110465760125483610ff96109c0565b6110039190612ceb565b11156110465760405162461bcd60e51b815260206004820152601260248201527115985d5b1d0818d85c08195e18d95959195960721b6044820152606401610b48565b610bd78383612097565b611058611da1565b61106f5f8051602061305e83398151915233611397565b806110825750336001600160a01b038316145b61109e5760405162461bcd60e51b8152600401610b4890612d36565b6001600160a01b0382166110ec5760405162461bcd60e51b8152602060048201526015602482015274496e76616c6964207072696d65206164647265737360581b6044820152606401610b48565b6111177f00000000000000000000000000000000000000000000000000000000000000008383611f14565b610e0660015f8051602061307e83398151915255565b5f61113781611d50565b6107d08211156111785760405162461bcd60e51b815260206004820152600c60248201526b08ccaca40e8dede40d0d2ced60a31b6044820152606401610b48565b50600955565b5f61118881611d50565b6001600160a01b0382166111de5760405162461bcd60e51b815260206004820152601e60248201527f466f756e6465722063616e6e6f74206265207a65726f206164647265737300006044820152606401610b48565b50600880546001600160a01b0319166001600160a01b0392909216919091179055565b5f8051602061305e83398151915261121881611d50565b50601355565b7f65d7a28e3265b37a6474929f336521b332c1681b933f6cb9f3376673440d862a61124881611d50565b610b936120e3565b5f8051602061305e83398151915261126781611d50565b600c546001600160a01b03166112b85760405162461bcd60e51b8152602060048201526016602482015275125b9cdd5c985b98d948199d5b99081b9bdd081cd95d60521b6044820152606401610b48565b600c54604051306024820152604481018490525f916001600160a01b03169060640160408051601f198184030181529181526020820180516001600160e01b0316635569f64b60e11b1790525161130f9190612d8a565b5f604051808303815f865af19150503d805f8114611348576040519150601f19603f3d011682016040523d82523d5f602084013e61134d565b606091505b5050905080610e925760405162461bcd60e51b8152602060048201526016602482015275125b9cdd5c985b98d94818db185a5b4819985a5b195960521b6044820152606401610b48565b5f9182526005602090815260408084206001600160a01b0393909316845291905290205460ff1690565b5f6113cb81611d50565b506001600160a01b03919091165f908152601160205260409020805460ff1916911515919091179055565b5f6113ff611eee565b60105460ff1615611480576001600160a01b0382165f9081526011602052604090205460ff168061144257506114425f8051602061305e83398151915233611397565b6114805760405162461bcd60e51b815260206004820152600f60248201526e139bdd081dda1a5d195b1a5cdd1959608a1b6044820152606401610b48565b5f61148a84611840565b601254909150156114ee57601254816114a16109c0565b6114ab9190612ceb565b11156114ee5760405162461bcd60e51b815260206004820152601260248201527115985d5b1d0818d85c08195e18d95959195960721b6044820152606401610b48565b6114f88484612120565b949350505050565b60605f6016805461151090612cfe565b90501161151f576109e361216c565b60168054610a6890612cfe565b5f8051602061305e83398151915261154381611d50565b6008546001600160a01b031661158d5760405162461bcd60e51b815260206004820152600f60248201526e119bdd5b99195c881b9bdd081cd95d608a1b6044820152606401610b48565b5f6127106009548461159f9190612da5565b6115a99190612dd0565b90508015611610576014545f906001600160a01b03166115d4576008546001600160a01b03166115e1565b6014546001600160a01b03165b905061160e7f00000000000000000000000000000000000000000000000000000000000000008284611f14565b505b5f612710600d54856116229190612da5565b61162c9190612dd0565b90505f811180156116475750600c546001600160a01b031615155b15610e2e577f0000000000000000000000000000000000000000000000000000000000000000600c5460405163095ea7b360e01b81526001600160a01b0391821660048201526024810184905291169063095ea7b3906044016020604051808303815f875af11580156116bc573d5f803e3d5ffd5b505050506040513d601f19601f820116820180604052508101906116e09190612de3565b50600c54604051602481018390525f916001600160a01b03169060440160408051601f198184030181529181526020820180516001600160e01b031663b6b55f2560e01b179052516117329190612d8a565b5f604051808303815f865af19150503d805f811461176b576040519150601f19603f3d011682016040523d82523d5f602084013e611770565b606091505b50509050806117c15760405162461bcd60e51b815260206004820152601860248201527f496e737572616e6365206465706f736974206661696c656400000000000000006044820152606401610b48565b5050505050565b6008546001600160a01b0316156118175760405162461bcd60e51b8152602060048201526013602482015272105b1c9958591e481a5b9a5d1a585b1a5e9959606a1b6044820152606401610b48565b61182988888888335f8a8a8a8a61217b565b5050505050505050565b5f33610ba3818585611e91565b5f610a18826001611d69565b5f611855611eee565b837f00000000000000000000000000000000000000000000000000000000000000006040516370a0823160e01b81523060048201526001600160a01b0391909116906370a0823190602401602060405180830381865afa1580156118bb573d5f803e3d5ffd5b505050506040513d601f19601f820116820180604052508101906118df9190612dfe565b101561192d5760405162461bcd60e51b815260206004820152601a60248201527f496e73756666696369656e74206c6971756964206275666665720000000000006044820152606401610b48565b6114f88484846122a4565b6119425f33611397565b61195e5760405162461bcd60e51b8152600401610b4890612d36565b6107d081111561199f5760405162461bcd60e51b815260206004820152600c60248201526b08ccaca40e8dede40d0d2ced60a31b6044820152606401610b48565b600a55565b5f6119ad611eee565b5f6119b785610ae9565b9050807f00000000000000000000000000000000000000000000000000000000000000006040516370a0823160e01b81523060048201526001600160a01b0391909116906370a0823190602401602060405180830381865afa158015611a1f573d5f803e3d5ffd5b505050506040513d601f19601f82011682018060405250810190611a439190612dfe565b1015611a915760405162461bcd60e51b815260206004820152601a60248201527f496e73756666696369656e74206c6971756964206275666665720000000000006044820152606401610b48565b611a9c8585856122f1565b95945050505050565b611aaf5f33611397565b80611acc5750611acc5f8051602061305e83398151915233611397565b611ae85760405162461bcd60e51b8152600401610b4890612d36565b601255565b5f611af781611d50565b50600c80546001600160a01b0319166001600160a01b0392909216919091179055565b5f611b2760065460ff1690565b15611b3357505f919050565b60105460ff168015611b5d57506001600160a01b0382165f9081526011602052604090205460ff16155b15611b6957505f919050565b5f611b726109c0565b60125490915015610f31576012548110611b8e57505f92915050565b610bd7816012546108af9190612d77565b5f610a18825f611dff565b5f610a186104a783611bdb565b5f82815260056020526040902060010154611bd181611d50565b610e2e8383611fda565b6001600160a01b0381165f90815260208190526040812054610a18565b5f611c0281611d50565b610bb8821115611c4c5760405162461bcd60e51b8152602060048201526015602482015274086dedce8e4d2c4eae8d2dedc40e8dede40d0d2ced605b1b6044820152606401610b48565b50600d55565b5f611c5c81611d50565b50601480546001600160a01b0319166001600160a01b0392909216919091179055565b5f80611c896109c0565b90505f611c9560025490565b9050805f03611ca857614e209250505090565b80611cb583612710612da5565b611cbf9190612dd0565b9250505090565b5f7f00000000000000000000000000000000000000000000000000000000000000006040516370a0823160e01b81523060048201526001600160a01b0391909116906370a0823190602401602060405180830381865afa158015611d2c573d5f803e3d5ffd5b505050506040513d601f19601f820116820180604052508101906109e39190612dfe565b610b93813361233e565b606060038054610a6890612cfe565b5f610bd7611d756109c0565b611d80906001612ceb565b611d8b5f600a612ef5565b600254611d989190612ceb565b85919085612377565b611da96123b9565b60025f8051602061307e83398151915255565b611dca8484848460016123e8565b610e2e57604051635274afe760e01b81526001600160a01b0385166004820152602401610b48565b610e928383836001612455565b5f610bd7611e0e82600a612ef5565b600254611e1b9190612ceb565b611e236109c0565b611d98906001612ceb565b6001600160a01b038381165f908152600160209081526040808320938616835292905220545f19811015610e2e5781811015611e8357828183604051637dc7a0d960e11b8152600401610b4893929190612f03565b610e2e84848484035f612455565b6001600160a01b038316611eba57604051634b637e8f60e11b81525f6004820152602401610b48565b6001600160a01b038216611ee35760405163ec442f0560e01b81525f6004820152602401610b48565b610e92838383612527565b60065460ff1615611f125760405163d93c066560e01b815260040160405180910390fd5b565b611f21838383600161263a565b610e9257604051635274afe760e01b81526001600160a01b0384166004820152602401610b48565b5f611f548383611397565b611fd3575f8381526005602090815260408083206001600160a01b03861684529091529020805460ff19166001179055611f8b3390565b6001600160a01b0316826001600160a01b0316847f2f8788117e7eff1d82e926ec794901d17c78024a50270940304540a733656f0d60405160405180910390a4506001610a18565b505f610a18565b5f611fe58383611397565b15611fd3575f8381526005602090815260408083206001600160a01b0386168085529252808320805460ff1916905551339286917ff6391f5c32d9c69d2a47ea670b442974b53935d1edc7fd64eb21e047a839171b9190a4506001610a18565b61204d61269c565b6006805460ff191690557f5db9ee0a495bf2e6ff9c91a7834c1ba4fdd244a5e8aa4e537bd38aeae4b073aa335b6040516001600160a01b03909116815260200160405180910390a1565b5f806120a283610ea9565b9050808411156120cb57828482604051633c8097d960e11b8152600401610b4893929190612f03565b5f6120d585611b9f565b90506114f8338587846126bf565b6120eb611eee565b6006805460ff191660011790557f62e78cea01bee320cd4e420270b5ea74000d11b0c9f74754ebdbfc544b05a25861207a3390565b5f8061212b83611b1a565b9050808411156121545782848260405163284ff66760e01b8152600401610b4893929190612f03565b5f61215e85611840565b90506114f8338583886126bf565b606060048054610a6890612cfe565b6001600160a01b0387166121d15760405162461bcd60e51b815260206004820152601c60248201527f41646d696e2063616e6e6f74206265207a65726f2061646472657373000000006044820152606401610b48565b60156121dd8a82612f68565b5060166121ea8982612f68565b506121f55f88611f49565b5061220d5f8051602061305e83398151915287611f49565b506122387f65d7a28e3265b37a6474929f336521b332c1681b933f6cb9f3376673440d862a88611f49565b50600880546001600160a01b0319166001600160a01b038616179055600a839055811580159061226a57506107d08211155b156122755760098290555b6010805460ff19168215151790556002545f0361229857612298876103e8612743565b50505050505050505050565b5f806122af83611baa565b9050808511156122d857828582604051633fa733bb60e21b8152600401610b4893929190612f03565b5f6122e286610bad565b9050611a9c3386868985612777565b5f806122fc83611bdb565b90508085111561232557828582604051632e52afbb60e21b8152600401610b4893929190612f03565b5f61232f86610ae9565b9050611a9c338686848a612777565b6123488282611397565b610e065760405163e2517d3f60e01b81526001600160a01b038216600482015260248101839052604401610b48565b5f6123a461238483612837565b801561239f57505f848061239a5761239a612dbc565b868809115b151590565b6123af868686612863565b611a9c9190612ceb565b5f8051602061307e83398151915254600203611f1257604051633ee5aeb560e01b815260040160405180910390fd5b6040516323b872dd60e01b5f8181526001600160a01b038781166004528616602452604485905291602083606481808c5af1925060015f51148316612444578383151615612438573d5f823e3d81fd5b5f883b113d1516831692505b604052505f60605295945050505050565b6001600160a01b03841661247e5760405163e602df0560e01b81525f6004820152602401610b48565b6001600160a01b0383166124a757604051634a1406b160e11b81525f6004820152602401610b48565b6001600160a01b038085165f9081526001602090815260408083209387168352929052208290558015610e2e57826001600160a01b0316846001600160a01b03167f8c5be1e5ebec7d5bd14f71427d1e84f3dd0314c0f7b2291e5b200ac8c7c3b9258460405161251991815260200190565b60405180910390a350505050565b6001600160a01b038316612551578060025f8282546125469190612ceb565b909155506125ae9050565b6001600160a01b0383165f90815260208190526040902054818110156125905783818360405163391434e360e21b8152600401610b4893929190612f03565b6001600160a01b0384165f9081526020819052604090209082900390555b6001600160a01b0382166125ca576002805482900390556125e8565b6001600160a01b0382165f9081526020819052604090208054820190555b816001600160a01b0316836001600160a01b03167fddf252ad1be2c89b69c2b068fc378daa952ba7f163c4a11628f55a4df523b3ef8360405161262d91815260200190565b60405180910390a3505050565b60405163a9059cbb60e01b5f8181526001600160a01b038616600452602485905291602083604481808b5af1925060015f51148316612690578383151615612684573d5f823e3d81fd5b5f873b113d1516831692505b60405250949350505050565b60065460ff16611f1257604051638dfc202b60e01b815260040160405180910390fd5b6126eb7f0000000000000000000000000000000000000000000000000000000000000000853085611dbc565b6126f58382612743565b826001600160a01b0316846001600160a01b03167fdcbc1c05240f31ff3ad067ef1ee35ce4997762752e3a095284754544f4c709d78484604051612519929190918252602082015260400190565b6001600160a01b03821661276c5760405163ec442f0560e01b81525f6004820152602401610b48565b610e065f8383612527565b826001600160a01b0316856001600160a01b03161461279b5761279b838683611e2e565b6127a58382612913565b6127d07f00000000000000000000000000000000000000000000000000000000000000008584611f14565b826001600160a01b0316846001600160a01b0316866001600160a01b03167ffbde797d201c681b91056529119e0b02407c7bb96a4a2c75c01fc9667232c8db8585604051612828929190918252602082015260400190565b60405180910390a45050505050565b5f600282600381111561284c5761284c613028565b612856919061303c565b60ff166001149050919050565b5f805f6128708686612947565b91509150815f036128945783818161288a5761288a612dbc565b0492505050610bd7565b8184116128ab576128ab6003851502601118612963565b5f848688095f868103871696879004966002600389028118808a02820302808a02820302808a02820302808a02820302808a02820302808a02909103029181900381900460010185841190960395909502919093039390930492909217029150509392505050565b6001600160a01b03821661293c57604051634b637e8f60e11b81525f6004820152602401610b48565b610e06825f83612527565b5f805f1983850993909202808410938190039390930393915050565b634e487b715f52806020526024601cfd5b5f60208284031215612984575f80fd5b81356001600160e01b031981168114610bd7575f80fd5b8015158114610b93575f80fd5b5f602082840312156129b8575f80fd5b8135610bd78161299b565b5f5b838110156129dd5781810151838201526020016129c5565b50505f910152565b602081525f8251806020840152612a038160408501602087016129c3565b601f01601f19169190910160400192915050565b5f60208284031215612a27575f80fd5b5035919050565b80356001600160a01b0381168114612a44575f80fd5b919050565b5f8060408385031215612a5a575f80fd5b612a6383612a2e565b946020939093013593505050565b5f60208284031215612a81575f80fd5b610bd782612a2e565b5f805f60608486031215612a9c575f80fd5b612aa584612a2e565b9250612ab360208501612a2e565b9150604084013590509250925092565b5f8060408385031215612ad4575f80fd5b82359150612ae460208401612a2e565b90509250929050565b5f8060408385031215612afe575f80fd5b612b0783612a2e565b91506020830135612b178161299b565b809150509250929050565b634e487b7160e01b5f52604160045260245ffd5b5f82601f830112612b45575f80fd5b813567ffffffffffffffff80821115612b6057612b60612b22565b604051601f8301601f19908116603f01168101908282118183101715612b8857612b88612b22565b81604052838152866020858801011115612ba0575f80fd5b836020870160208301375f602085830101528094505050505092915050565b5f805f805f805f80610100898b031215612bd7575f80fd5b612be089612a2e565b9750602089013567ffffffffffffffff80821115612bfc575f80fd5b612c088c838d01612b36565b985060408b0135915080821115612c1d575f80fd5b50612c2a8b828c01612b36565b965050612c3960608a01612a2e565b9450612c4760808a01612a2e565b935060a0890135925060c0890135915060e0890135612c658161299b565b809150509295985092959890939650565b5f805f60608486031215612c88575f80fd5b83359250612c9860208501612a2e565b9150612ca660408501612a2e565b90509250925092565b5f8060408385031215612cc0575f80fd5b612cc983612a2e565b9150612ae460208401612a2e565b634e487b7160e01b5f52601160045260245ffd5b80820180821115610a1857610a18612cd7565b600181811c90821680612d1257607f821691505b602082108103612d3057634e487b7160e01b5f52602260045260245ffd5b50919050565b6020808252600e908201526d139bdd08185d5d1a1bdc9a5e995960921b604082015260600190565b60ff8181168382160190811115610a1857610a18612cd7565b81810381811115610a1857610a18612cd7565b5f8251612d9b8184602087016129c3565b9190910192915050565b8082028115828204841417610a1857610a18612cd7565b634e487b7160e01b5f52601260045260245ffd5b5f82612dde57612dde612dbc565b500490565b5f60208284031215612df3575f80fd5b8151610bd78161299b565b5f60208284031215612e0e575f80fd5b5051919050565b600181815b80851115612e4f57815f1904821115612e3557612e35612cd7565b80851615612e4257918102915b93841c9390800290612e1a565b509250929050565b5f82612e6557506001610a18565b81612e7157505f610a18565b8160018114612e875760028114612e9157612ead565b6001915050610a18565b60ff841115612ea257612ea2612cd7565b50506001821b610a18565b5060208310610133831016604e8410600b8410161715612ed0575081810a610a18565b612eda8383612e15565b805f1904821115612eed57612eed612cd7565b029392505050565b5f610bd760ff841683612e57565b6001600160a01b039390931683526020830191909152604082015260600190565b601f821115610e9257805f5260205f20601f840160051c81016020851015612f495750805b601f840160051c820191505b818110156117c1575f8155600101612f55565b815167ffffffffffffffff811115612f8257612f82612b22565b612f9681612f908454612cfe565b84612f24565b602080601f831160018114612fc9575f8415612fb25750858301515b5f19600386901b1c1916600185901b178555613020565b5f85815260208120601f198616915b82811015612ff757888601518255948401946001909101908401612fd8565b508582101561301457878501515f19600388901b60f8161c191681555b505060018460011b0185555b505050505050565b634e487b7160e01b5f52602160045260245ffd5b5f60ff83168061304e5761304e612dbc565b8060ff8416069150509291505056fe17a8e30262c1f919c33056d877a3c22b95c2f5e4dac44683c1c2323cd79fbdb09b779b17422d0df92223018b32b4d1fa46e071723d6817e2486d003becc55f00a2646970667358221220c10a91480be117234d6bb5eb739146e136e28adf855d7fdd4a3fb270bcad2e1c64736f6c63430008180033","linkReferences":{}},"methodIdentifiers":{"DEFAULT_ADMIN_ROLE()":"a217fddf","PAUSER_ROLE()":"e63ab1e9","STRATEGIST_ROLE()":"a378a324","allowance(address,address)":"dd62ed3e","approve(address,uint256)":"095ea7b3","asset()":"38d52e0f","balanceOf(address)":"70a08231","captureFounderWealth(uint256)":"96d0d174","convertToAssets(uint256)":"07a2d13a","convertToShares(uint256)":"c6e6f592","decimals()":"313ce567","deposit(uint256,address)":"6e553f65","drawFromInsuranceFund(uint256)":"8b788622","exchangeDepositAddress()":"3d9524cb","founder()":"4d853ee5","founderFeeBps()":"792f9683","getExchangeDepositAddress()":"2eaa41d1","getProjectedAPY()":"c63936e7","getRoleAdmin(bytes32)":"248a9ca3","getSolvencyRatio()":"fefa625f","grantRole(bytes32,address)":"2f2ff15d","grossPerformanceFeeBps()":"cbde2cdc","hasRole(bytes32,address)":"91d14854","hedgingReserve()":"17881aac","initialize(address,string,string,address,address,uint256,uint256,bool)":"a65075b3","insuranceFund()":"b7902303","insuranceFundBalance()":"3dbc645d","insuranceFundBps()":"cb0ee680","lastReportedTimestamp()":"6c9a9fb0","maxDeposit(address)":"402d267d","maxMint(address)":"c63d75b6","maxRedeem(address)":"d905777e","maxTotalAssets()":"d820f492","maxWithdraw(address)":"ce96cb77","mint(uint256,address)":"94bf804d","name()":"06fdde03","offChainAssets()":"ba9312a8","pause()":"8456cb59","paused()":"5c975abb","previewDeposit(uint256)":"ef8b30f7","previewMint(uint256)":"b3d7f6b9","previewRedeem(uint256)":"4cdad506","previewWithdraw(uint256)":"0a28a477","primeAccounts(address)":"165c29e5","projectedAPY()":"e1aec3de","redeem(uint256,address,address)":"ba087652","renounceRole(bytes32,address)":"36568abe","returnFromPrime(uint256)":"08fe7d7f","revokeRole(bytes32,address)":"d547741f","setFounder(address)":"7a341bc7","setFounderFee(uint256)":"b9d7bd33","setInsuranceFund(address)":"c3c05293","setInsuranceFundBps(uint256)":"de50e437","setMaxTotalAssets(uint256)":"bc2e47b7","setPerformanceFee(uint256)":"70897b23","setTreasury(address)":"f0f44260","setWhitelistEnabled(bool)":"052d9e7e","setWhitelisted(address,bool)":"9281aa0b","supportsInterface(bytes4)":"01ffc9a7","sweepToExchange(uint256)":"28833a9f","symbol()":"95d89b41","totalAssets()":"01e1d114","totalSupply()":"18160ddd","transfer(address,uint256)":"a9059cbb","transferFrom(address,address,uint256)":"23b872dd","transferToPrime(address,uint256)":"6fef958a","treasury()":"61d027b3","unpause()":"3f4ba83a","updateHedgingReserve(uint256)":"4ee07649","updateOffChainAssets(uint256)":"2736d571","updateProjectedAPY(uint256)":"7f513e63","whitelistEnabled()":"51fb012d","whitelisted(address)":"d936547e","withdraw(uint256,address,address)":"b460af94"},"id":60}