{"abi":[{"type":"constructor","inputs":[{"name":"defaultAdmin","type":"address","internalType":"address"}],"stateMutability":"nonpayable"},{"type":"function","name":"DEFAULT_ADMIN_ROLE","inputs":[],"outputs":[{"name":"","type":"bytes32","internalType":"bytes32"}],"stateMutability":"view"},{"type":"function","name":"DOMAIN_SEPARATOR","inputs":[],"outputs":[{"name":"","type":"bytes32","internalType":"bytes32"}],"stateMutability":"view"},{"type":"function","name":"MINTER_ROLE","inputs":[],"outputs":[{"name":"","type":"bytes32","internalType":"bytes32"}],"stateMutability":"view"},{"type":"function","name":"allowance","inputs":[{"name":"owner","type":"address","internalType":"address"},{"name":"spender","type":"address","internalType":"address"}],"outputs":[{"name":"","type":"uint256","internalType":"uint256"}],"stateMutability":"view"},{"type":"function","name":"approve","inputs":[{"name":"spender","type":"address","internalType":"address"},{"name":"value","type":"uint256","internalType":"uint256"}],"outputs":[{"name":"","type":"bool","internalType":"bool"}],"stateMutability":"nonpayable"},{"type":"function","name":"balanceOf","inputs":[{"name":"account","type":"address","internalType":"address"}],"outputs":[{"name":"","type":"uint256","internalType":"uint256"}],"stateMutability":"view"},{"type":"function","name":"burn","inputs":[{"name":"value","type":"uint256","internalType":"uint256"}],"outputs":[],"stateMutability":"nonpayable"},{"type":"function","name":"burnFrom","inputs":[{"name":"account","type":"address","internalType":"address"},{"name":"value","type":"uint256","internalType":"uint256"}],"outputs":[],"stateMutability":"nonpayable"},{"type":"function","name":"decimals","inputs":[],"outputs":[{"name":"","type":"uint8","internalType":"uint8"}],"stateMutability":"view"},{"type":"function","name":"eip712Domain","inputs":[],"outputs":[{"name":"fields","type":"bytes1","internalType":"bytes1"},{"name":"name","type":"string","internalType":"string"},{"name":"version","type":"string","internalType":"string"},{"name":"chainId","type":"uint256","internalType":"uint256"},{"name":"verifyingContract","type":"address","internalType":"address"},{"name":"salt","type":"bytes32","internalType":"bytes32"},{"name":"extensions","type":"uint256[]","internalType":"uint256[]"}],"stateMutability":"view"},{"type":"function","name":"getRoleAdmin","inputs":[{"name":"role","type":"bytes32","internalType":"bytes32"}],"outputs":[{"name":"","type":"bytes32","internalType":"bytes32"}],"stateMutability":"view"},{"type":"function","name":"grantRole","inputs":[{"name":"role","type":"bytes32","internalType":"bytes32"},{"name":"account","type":"address","internalType":"address"}],"outputs":[],"stateMutability":"nonpayable"},{"type":"function","name":"hasRole","inputs":[{"name":"role","type":"bytes32","internalType":"bytes32"},{"name":"account","type":"address","internalType":"address"}],"outputs":[{"name":"","type":"bool","internalType":"bool"}],"stateMutability":"view"},{"type":"function","name":"mint","inputs":[{"name":"to","type":"address","internalType":"address"},{"name":"amount","type":"uint256","internalType":"uint256"}],"outputs":[],"stateMutability":"nonpayable"},{"type":"function","name":"name","inputs":[],"outputs":[{"name":"","type":"string","internalType":"string"}],"stateMutability":"view"},{"type":"function","name":"nonces","inputs":[{"name":"owner","type":"address","internalType":"address"}],"outputs":[{"name":"","type":"uint256","internalType":"uint256"}],"stateMutability":"view"},{"type":"function","name":"permit","inputs":[{"name":"owner","type":"address","internalType":"address"},{"name":"spender","type":"address","internalType":"address"},{"name":"value","type":"uint256","internalType":"uint256"},{"name":"deadline","type":"uint256","internalType":"uint256"},{"name":"v","type":"uint8","internalType":"uint8"},{"name":"r","type":"bytes32","internalType":"bytes32"},{"name":"s","type":"bytes32","internalType":"bytes32"}],"outputs":[],"stateMutability":"nonpayable"},{"type":"function","name":"renounceRole","inputs":[{"name":"role","type":"bytes32","internalType":"bytes32"},{"name":"callerConfirmation","type":"address","internalType":"address"}],"outputs":[],"stateMutability":"nonpayable"},{"type":"function","name":"revokeRole","inputs":[{"name":"role","type":"bytes32","internalType":"bytes32"},{"name":"account","type":"address","internalType":"address"}],"outputs":[],"stateMutability":"nonpayable"},{"type":"function","name":"supportsInterface","inputs":[{"name":"interfaceId","type":"bytes4","internalType":"bytes4"}],"outputs":[{"name":"","type":"bool","internalType":"bool"}],"stateMutability":"view"},{"type":"function","name":"symbol","inputs":[],"outputs":[{"name":"","type":"string","internalType":"string"}],"stateMutability":"view"},{"type":"function","name":"totalSupply","inputs":[],"outputs":[{"name":"","type":"uint256","internalType":"uint256"}],"stateMutability":"view"},{"type":"function","name":"transfer","inputs":[{"name":"to","type":"address","internalType":"address"},{"name":"value","type":"uint256","internalType":"uint256"}],"outputs":[{"name":"","type":"bool","internalType":"bool"}],"stateMutability":"nonpayable"},{"type":"function","name":"transferFrom","inputs":[{"name":"from","type":"address","internalType":"address"},{"name":"to","type":"address","internalType":"address"},{"name":"value","type":"uint256","internalType":"uint256"}],"outputs":[{"name":"","type":"bool","internalType":"bool"}],"stateMutability":"nonpayable"},{"type":"event","name":"Approval","inputs":[{"name":"owner","type":"address","indexed":true,"internalType":"address"},{"name":"spender","type":"address","indexed":true,"internalType":"address"},{"name":"value","type":"uint256","indexed":false,"internalType":"uint256"}],"anonymous":false},{"type":"event","name":"EIP712DomainChanged","inputs":[],"anonymous":false},{"type":"event","name":"RoleAdminChanged","inputs":[{"name":"role","type":"bytes32","indexed":true,"internalType":"bytes32"},{"name":"previousAdminRole","type":"bytes32","indexed":true,"internalType":"bytes32"},{"name":"newAdminRole","type":"bytes32","indexed":true,"internalType":"bytes32"}],"anonymous":false},{"type":"event","name":"RoleGranted","inputs":[{"name":"role","type":"bytes32","indexed":true,"internalType":"bytes32"},{"name":"account","type":"address","indexed":true,"internalType":"address"},{"name":"sender","type":"address","indexed":true,"internalType":"address"}],"anonymous":false},{"type":"event","name":"RoleRevoked","inputs":[{"name":"role","type":"bytes32","indexed":true,"internalType":"bytes32"},{"name":"account","type":"address","indexed":true,"internalType":"address"},{"name":"sender","type":"address","indexed":true,"internalType":"address"}],"anonymous":false},{"type":"event","name":"Transfer","inputs":[{"name":"from","type":"address","indexed":true,"internalType":"address"},{"name":"to","type":"address","indexed":true,"internalType":"address"},{"name":"value","type":"uint256","indexed":false,"internalType":"uint256"}],"anonymous":false},{"type":"error","name":"AccessControlBadConfirmation","inputs":[]},{"type":"error","name":"AccessControlUnauthorizedAccount","inputs":[{"name":"account","type":"address","internalType":"address"},{"name":"neededRole","type":"bytes32","internalType":"bytes32"}]},{"type":"error","name":"ECDSAInvalidSignature","inputs":[]},{"type":"error","name":"ECDSAInvalidSignatureLength","inputs":[{"name":"length","type":"uint256","internalType":"uint256"}]},{"type":"error","name":"ECDSAInvalidSignatureS","inputs":[{"name":"s","type":"bytes32","internalType":"bytes32"}]},{"type":"error","name":"ERC20InsufficientAllowance","inputs":[{"name":"spender","type":"address","internalType":"address"},{"name":"allowance","type":"uint256","internalType":"uint256"},{"name":"needed","type":"uint256","internalType":"uint256"}]},{"type":"error","name":"ERC20InsufficientBalance","inputs":[{"name":"sender","type":"address","internalType":"address"},{"name":"balance","type":"uint256","internalType":"uint256"},{"name":"needed","type":"uint256","internalType":"uint256"}]},{"type":"error","name":"ERC20InvalidApprover","inputs":[{"name":"approver","type":"address","internalType":"address"}]},{"type":"error","name":"ERC20InvalidReceiver","inputs":[{"name":"receiver","type":"address","internalType":"address"}]},{"type":"error","name":"ERC20InvalidSender","inputs":[{"name":"sender","type":"address","internalType":"address"}]},{"type":"error","name":"ERC20InvalidSpender","inputs":[{"name":"spender","type":"address","internalType":"address"}]},{"type":"error","name":"ERC2612ExpiredSignature","inputs":[{"name":"deadline","type":"uint256","internalType":"uint256"}]},{"type":"error","name":"ERC2612InvalidSigner","inputs":[{"name":"signer","type":"address","internalType":"address"},{"name":"owner","type":"address","internalType":"address"}]},{"type":"error","name":"InvalidAccountNonce","inputs":[{"name":"account","type":"address","internalType":"address"},{"name":"currentNonce","type":"uint256","internalType":"uint256"}]},{"type":"error","name":"InvalidShortString","inputs":[]},{"type":"error","name":"StringTooLong","inputs":[{"name":"str","type":"string","internalType":"string"}]}],"bytecode":{"object":"0x61016060405234801562000011575f80fd5b50604051620018a6380380620018a68339810160408190526200003491620002f8565b6040518060400160405280601681526020017f4b65726e652053796e74686574696320446f6c6c61720000000000000000000081525080604051806040016040528060018152602001603160f81b8152506040518060400160405280601681526020017f4b65726e652053796e74686574696320446f6c6c617200000000000000000000815250604051806040016040528060048152602001631ad554d160e21b8152508160039081620000e99190620003c5565b506004620000f88282620003c5565b506200010a91508390506006620001c6565b610120526200011b816007620001c6565b61014052815160208084019190912060e052815190820120610100524660a052620001a860e05161010051604080517f8b73c3c69bb8fe3d512ecc4cf759cc79239f7b179b0ffacaa9a75d522b39400f60208201529081019290925260608201524660808201523060a08201525f9060c00160405160208183030381529060405280519060200120905090565b60805250503060c05250620001be5f82620001fe565b505062000503565b5f602083511015620001e557620001dd83620002ad565b9050620001f8565b81620001f28482620003c5565b5060ff90505b92915050565b5f8281526005602090815260408083206001600160a01b038516845290915281205460ff16620002a5575f8381526005602090815260408083206001600160a01b03861684529091529020805460ff191660011790556200025c3390565b6001600160a01b0316826001600160a01b0316847f2f8788117e7eff1d82e926ec794901d17c78024a50270940304540a733656f0d60405160405180910390a4506001620001f8565b505f620001f8565b5f80829050601f81511115620002e3578260405163305a27a960e01b8152600401620002da919062000491565b60405180910390fd5b8051620002f082620004df565b179392505050565b5f6020828403121562000309575f80fd5b81516001600160a01b038116811462000320575f80fd5b9392505050565b634e487b7160e01b5f52604160045260245ffd5b600181811c908216806200035057607f821691505b6020821081036200036f57634e487b7160e01b5f52602260045260245ffd5b50919050565b601f821115620003c057805f5260205f20601f840160051c810160208510156200039c5750805b601f840160051c820191505b81811015620003bd575f8155600101620003a8565b50505b505050565b81516001600160401b03811115620003e157620003e162000327565b620003f981620003f284546200033b565b8462000375565b602080601f8311600181146200042f575f8415620004175750858301515b5f19600386901b1c1916600185901b17855562000489565b5f85815260208120601f198616915b828110156200045f578886015182559484019460019091019084016200043e565b50858210156200047d57878501515f19600388901b60f8161c191681555b505060018460011b0185555b505050505050565b5f602080835283518060208501525f5b81811015620004bf57858101830151858201604001528201620004a1565b505f604082860101526040601f19601f8301168501019250505092915050565b805160208083015191908110156200036f575f1960209190910360031b1b16919050565b60805160a05160c05160e051610100516101205161014051611351620005555f395f610aef01525f610ac201525f61099801525f61097001525f6108cb01525f6108f501525f61091f01526113515ff3fe608060405234801561000f575f80fd5b5060043610610153575f3560e01c806370a08231116100bf578063a217fddf11610079578063a217fddf146102d7578063a9059cbb146102de578063d505accf146102f1578063d539139314610304578063d547741f1461032b578063dd62ed3e1461033e575f80fd5b806370a082311461025357806379cc67901461027b5780637ecebe001461028e57806384b0196e146102a157806391d14854146102bc57806395d89b41146102cf575f80fd5b80632f2ff15d116101105780632f2ff15d146101ee578063313ce567146102035780633644e5151461021257806336568abe1461021a57806340c10f191461022d57806342966c6814610240575f80fd5b806301ffc9a71461015757806306fdde031461017f578063095ea7b31461019457806318160ddd146101a757806323b872dd146101b9578063248a9ca3146101cc575b5f80fd5b61016a61016536600461102b565b610376565b60405190151581526020015b60405180910390f35b6101876103ac565b604051610176919061109c565b61016a6101a23660046110c9565b61043c565b6002545b604051908152602001610176565b61016a6101c73660046110f1565b610453565b6101ab6101da36600461112a565b5f9081526005602052604090206001015490565b6102016101fc366004611141565b610476565b005b60405160128152602001610176565b6101ab6104a0565b610201610228366004611141565b6104ae565b61020161023b3660046110c9565b6104e6565b61020161024e36600461112a565b61051a565b6101ab61026136600461116b565b6001600160a01b03165f9081526020819052604090205490565b6102016102893660046110c9565b610527565b6101ab61029c36600461116b565b610540565b6102a961055d565b6040516101769796959493929190611184565b61016a6102ca366004611141565b61059f565b6101876105c9565b6101ab5f81565b61016a6102ec3660046110c9565b6105d8565b6102016102ff36600461121b565b6105e5565b6101ab7f9f2df0fed2c77648de5860a4cc508cd0818c85b8b8a1ab4ceeef8d981c8956a681565b610201610339366004611141565b610720565b6101ab61034c366004611288565b6001600160a01b039182165f90815260016020908152604080832093909416825291909152205490565b5f6001600160e01b03198216637965db0b60e01b14806103a657506301ffc9a760e01b6001600160e01b03198316145b92915050565b6060600380546103bb906112b0565b80601f01602080910402602001604051908101604052809291908181526020018280546103e7906112b0565b80156104325780601f1061040957610100808354040283529160200191610432565b820191905f5260205f20905b81548152906001019060200180831161041557829003601f168201915b5050505050905090565b5f33610449818585610744565b5060019392505050565b5f33610460858285610751565b61046b8585856107c7565b506001949350505050565b5f8281526005602052604090206001015461049081610824565b61049a838361082e565b50505050565b5f6104a96108bf565b905090565b6001600160a01b03811633146104d75760405163334bd91960e11b815260040160405180910390fd5b6104e182826109e8565b505050565b7f9f2df0fed2c77648de5860a4cc508cd0818c85b8b8a1ab4ceeef8d981c8956a661051081610824565b6104e18383610a53565b6105243382610a87565b50565b610532823383610751565b61053c8282610a87565b5050565b6001600160a01b0381165f908152600860205260408120546103a6565b5f6060805f805f606061056e610abb565b610576610ae8565b604080515f80825260208201909252600f60f81b9b939a50919850469750309650945092509050565b5f9182526005602090815260408084206001600160a01b0393909316845291905290205460ff1690565b6060600480546103bb906112b0565b5f336104498185856107c7565b8342111561060e5760405163313c898160e11b8152600481018590526024015b60405180910390fd5b5f7f6e71edae12b1b97f4d1f60370fef10105fa2faae0126114a169c64845d6126c98888886106598c6001600160a01b03165f90815260086020526040902080546001810190915590565b6040805160208101969096526001600160a01b0394851690860152929091166060840152608083015260a082015260c0810186905260e0016040516020818303038152906040528051906020012090505f6106b382610b15565b90505f6106c282878787610b41565b9050896001600160a01b0316816001600160a01b031614610709576040516325c0072360e11b81526001600160a01b0380831660048301528b166024820152604401610605565b6107148a8a8a610744565b50505050505050505050565b5f8281526005602052604090206001015461073a81610824565b61049a83836109e8565b6104e18383836001610b6d565b6001600160a01b038381165f908152600160209081526040808320938616835292905220545f1981101561049a57818110156107b957604051637dc7a0d960e11b81526001600160a01b03841660048201526024810182905260448101839052606401610605565b61049a84848484035f610b6d565b6001600160a01b0383166107f057604051634b637e8f60e11b81525f6004820152602401610605565b6001600160a01b0382166108195760405163ec442f0560e01b81525f6004820152602401610605565b6104e1838383610c3f565b6105248133610d65565b5f610839838361059f565b6108b8575f8381526005602090815260408083206001600160a01b03861684529091529020805460ff191660011790556108703390565b6001600160a01b0316826001600160a01b0316847f2f8788117e7eff1d82e926ec794901d17c78024a50270940304540a733656f0d60405160405180910390a45060016103a6565b505f6103a6565b5f306001600160a01b037f00000000000000000000000000000000000000000000000000000000000000001614801561091757507f000000000000000000000000000000000000000000000000000000000000000046145b1561094157507f000000000000000000000000000000000000000000000000000000000000000090565b6104a9604080517f8b73c3c69bb8fe3d512ecc4cf759cc79239f7b179b0ffacaa9a75d522b39400f60208201527f0000000000000000000000000000000000000000000000000000000000000000918101919091527f000000000000000000000000000000000000000000000000000000000000000060608201524660808201523060a08201525f9060c00160405160208183030381529060405280519060200120905090565b5f6109f3838361059f565b156108b8575f8381526005602090815260408083206001600160a01b0386168085529252808320805460ff1916905551339286917ff6391f5c32d9c69d2a47ea670b442974b53935d1edc7fd64eb21e047a839171b9190a45060016103a6565b6001600160a01b038216610a7c5760405163ec442f0560e01b81525f6004820152602401610605565b61053c5f8383610c3f565b6001600160a01b038216610ab057604051634b637e8f60e11b81525f6004820152602401610605565b61053c825f83610c3f565b60606104a97f00000000000000000000000000000000000000000000000000000000000000006006610d9e565b60606104a97f00000000000000000000000000000000000000000000000000000000000000006007610d9e565b5f6103a6610b216108bf565b8360405161190160f01b8152600281019290925260228201526042902090565b5f805f80610b5188888888610e47565b925092509250610b618282610f0f565b50909695505050505050565b6001600160a01b038416610b965760405163e602df0560e01b81525f6004820152602401610605565b6001600160a01b038316610bbf57604051634a1406b160e11b81525f6004820152602401610605565b6001600160a01b038085165f908152600160209081526040808320938716835292905220829055801561049a57826001600160a01b0316846001600160a01b03167f8c5be1e5ebec7d5bd14f71427d1e84f3dd0314c0f7b2291e5b200ac8c7c3b92584604051610c3191815260200190565b60405180910390a350505050565b6001600160a01b038316610c69578060025f828254610c5e91906112e8565b90915550610cd99050565b6001600160a01b0383165f9081526020819052604090205481811015610cbb5760405163391434e360e21b81526001600160a01b03851660048201526024810182905260448101839052606401610605565b6001600160a01b0384165f9081526020819052604090209082900390555b6001600160a01b038216610cf557600280548290039055610d13565b6001600160a01b0382165f9081526020819052604090208054820190555b816001600160a01b0316836001600160a01b03167fddf252ad1be2c89b69c2b068fc378daa952ba7f163c4a11628f55a4df523b3ef83604051610d5891815260200190565b60405180910390a3505050565b610d6f828261059f565b61053c5760405163e2517d3f60e01b81526001600160a01b038216600482015260248101839052604401610605565b606060ff8314610db857610db183610fc7565b90506103a6565b818054610dc4906112b0565b80601f0160208091040260200160405190810160405280929190818152602001828054610df0906112b0565b8015610e3b5780601f10610e1257610100808354040283529160200191610e3b565b820191905f5260205f20905b815481529060010190602001808311610e1e57829003601f168201915b505050505090506103a6565b5f80807f7fffffffffffffffffffffffffffffff5d576e7357a4501ddfe92f46681b20a0841115610e8057505f91506003905082610f05565b604080515f808252602082018084528a905260ff891692820192909252606081018790526080810186905260019060a0016020604051602081039080840390855afa158015610ed1573d5f803e3d5ffd5b5050604051601f1901519150506001600160a01b038116610efc57505f925060019150829050610f05565b92505f91508190505b9450945094915050565b5f826003811115610f2257610f22611307565b03610f2b575050565b6001826003811115610f3f57610f3f611307565b03610f5d5760405163f645eedf60e01b815260040160405180910390fd5b6002826003811115610f7157610f71611307565b03610f925760405163fce698f760e01b815260048101829052602401610605565b6003826003811115610fa657610fa6611307565b0361053c576040516335e2f38360e21b815260048101829052602401610605565b60605f610fd383611004565b6040805160208082528183019092529192505f91906020820181803683375050509182525060208101929092525090565b5f60ff8216601f8111156103a657604051632cd44ac360e21b815260040160405180910390fd5b5f6020828403121561103b575f80fd5b81356001600160e01b031981168114611052575f80fd5b9392505050565b5f81518084525f5b8181101561107d57602081850181015186830182015201611061565b505f602082860101526020601f19601f83011685010191505092915050565b602081525f6110526020830184611059565b80356001600160a01b03811681146110c4575f80fd5b919050565b5f80604083850312156110da575f80fd5b6110e3836110ae565b946020939093013593505050565b5f805f60608486031215611103575f80fd5b61110c846110ae565b925061111a602085016110ae565b9150604084013590509250925092565b5f6020828403121561113a575f80fd5b5035919050565b5f8060408385031215611152575f80fd5b82359150611162602084016110ae565b90509250929050565b5f6020828403121561117b575f80fd5b611052826110ae565b60ff60f81b881681525f602060e060208401526111a460e084018a611059565b83810360408501526111b6818a611059565b606085018990526001600160a01b038816608086015260a0850187905284810360c0860152855180825260208088019350909101905f5b81811015611209578351835292840192918401916001016111ed565b50909c9b505050505050505050505050565b5f805f805f805f60e0888a031215611231575f80fd5b61123a886110ae565b9650611248602089016110ae565b95506040880135945060608801359350608088013560ff8116811461126b575f80fd5b9699959850939692959460a0840135945060c09093013592915050565b5f8060408385031215611299575f80fd5b6112a2836110ae565b9150611162602084016110ae565b600181811c908216806112c457607f821691505b6020821081036112e257634e487b7160e01b5f52602260045260245ffd5b50919050565b808201808211156103a657634e487b7160e01b5f52601160045260245ffd5b634e487b7160e01b5f52602160045260245ffdfea2646970667358221220f9d819c2554be7c1f925102dabe6307cd6b374ae5400e122dc479f0df52e99f564736f6c63430008180033","linkReferences":{}},"methodIdentifiers":{"DEFAULT_ADMIN_ROLE()":"a217fddf","DOMAIN_SEPARATOR()":"3644e515","MINTER_ROLE()":"d5391393","allowance(address,address)":"dd62ed3e","approve(address,uint256)":"095ea7b3","balanceOf(address)":"70a08231","burn(uint256)":"42966c68","burnFrom(address,uint256)":"79cc6790","decimals()":"313ce567","eip712Domain()":"84b0196e","getRoleAdmin(bytes32)":"248a9ca3","grantRole(bytes32,address)":"2f2ff15d","hasRole(bytes32,address)":"91d14854","mint(address,uint256)":"40c10f19","name()":"06fdde03","nonces(address)":"7ecebe00","permit(address,address,uint256,uint256,uint8,bytes32,bytes32)":"d505accf","renounceRole(bytes32,address)":"36568abe","revokeRole(bytes32,address)":"d547741f","supportsInterface(bytes4)":"01ffc9a7","symbol()":"95d89b41","totalSupply()":"18160ddd","transfer(address,uint256)":"a9059cbb","transferFrom(address,address,uint256)":"23b872dd"},"id":55}