{"abi":[{"type":"constructor","inputs":[{"name":"_asset","type":"address","internalType":"contract IERC20"},{"name":"_name","type":"string","internalType":"string"},{"name":"_symbol","type":"string","internalType":"string"},{"name":"_admin","type":"address","internalType":"address"},{"name":"_strategist","type":"address","internalType":"address"},{"name":"_exchangeDepositAddress","type":"address","internalType":"address"}],"stateMutability":"nonpayable"},{"type":"function","name":"DEFAULT_ADMIN_ROLE","inputs":[],"outputs":[{"name":"","type":"bytes32","internalType":"bytes32"}],"stateMutability":"view"},{"type":"function","name":"PAUSER_ROLE","inputs":[],"outputs":[{"name":"","type":"bytes32","internalType":"bytes32"}],"stateMutability":"view"},{"type":"function","name":"STRATEGIST_ROLE","inputs":[],"outputs":[{"name":"","type":"bytes32","internalType":"bytes32"}],"stateMutability":"view"},{"type":"function","name":"allowance","inputs":[{"name":"owner","type":"address","internalType":"address"},{"name":"spender","type":"address","internalType":"address"}],"outputs":[{"name":"","type":"uint256","internalType":"uint256"}],"stateMutability":"view"},{"type":"function","name":"approve","inputs":[{"name":"spender","type":"address","internalType":"address"},{"name":"value","type":"uint256","internalType":"uint256"}],"outputs":[{"name":"","type":"bool","internalType":"bool"}],"stateMutability":"nonpayable"},{"type":"function","name":"asset","inputs":[],"outputs":[{"name":"","type":"address","internalType":"address"}],"stateMutability":"view"},{"type":"function","name":"balanceOf","inputs":[{"name":"account","type":"address","internalType":"address"}],"outputs":[{"name":"","type":"uint256","internalType":"uint256"}],"stateMutability":"view"},{"type":"function","name":"convertToAssets","inputs":[{"name":"shares","type":"uint256","internalType":"uint256"}],"outputs":[{"name":"","type":"uint256","internalType":"uint256"}],"stateMutability":"view"},{"type":"function","name":"convertToShares","inputs":[{"name":"assets","type":"uint256","internalType":"uint256"}],"outputs":[{"name":"","type":"uint256","internalType":"uint256"}],"stateMutability":"view"},{"type":"function","name":"decimals","inputs":[],"outputs":[{"name":"","type":"uint8","internalType":"uint8"}],"stateMutability":"view"},{"type":"function","name":"deposit","inputs":[{"name":"assets","type":"uint256","internalType":"uint256"},{"name":"receiver","type":"address","internalType":"address"}],"outputs":[{"name":"","type":"uint256","internalType":"uint256"}],"stateMutability":"nonpayable"},{"type":"function","name":"exchangeDepositAddress","inputs":[],"outputs":[{"name":"","type":"address","internalType":"address"}],"stateMutability":"view"},{"type":"function","name":"getRoleAdmin","inputs":[{"name":"role","type":"bytes32","internalType":"bytes32"}],"outputs":[{"name":"","type":"bytes32","internalType":"bytes32"}],"stateMutability":"view"},{"type":"function","name":"grantRole","inputs":[{"name":"role","type":"bytes32","internalType":"bytes32"},{"name":"account","type":"address","internalType":"address"}],"outputs":[],"stateMutability":"nonpayable"},{"type":"function","name":"hasRole","inputs":[{"name":"role","type":"bytes32","internalType":"bytes32"},{"name":"account","type":"address","internalType":"address"}],"outputs":[{"name":"","type":"bool","internalType":"bool"}],"stateMutability":"view"},{"type":"function","name":"maxDeposit","inputs":[{"name":"","type":"address","internalType":"address"}],"outputs":[{"name":"","type":"uint256","internalType":"uint256"}],"stateMutability":"view"},{"type":"function","name":"maxMint","inputs":[{"name":"","type":"address","internalType":"address"}],"outputs":[{"name":"","type":"uint256","internalType":"uint256"}],"stateMutability":"view"},{"type":"function","name":"maxRedeem","inputs":[{"name":"owner","type":"address","internalType":"address"}],"outputs":[{"name":"","type":"uint256","internalType":"uint256"}],"stateMutability":"view"},{"type":"function","name":"maxWithdraw","inputs":[{"name":"owner","type":"address","internalType":"address"}],"outputs":[{"name":"","type":"uint256","internalType":"uint256"}],"stateMutability":"view"},{"type":"function","name":"mint","inputs":[{"name":"shares","type":"uint256","internalType":"uint256"},{"name":"receiver","type":"address","internalType":"address"}],"outputs":[{"name":"","type":"uint256","internalType":"uint256"}],"stateMutability":"nonpayable"},{"type":"function","name":"name","inputs":[],"outputs":[{"name":"","type":"string","internalType":"string"}],"stateMutability":"view"},{"type":"function","name":"offChainAssets","inputs":[],"outputs":[{"name":"","type":"uint256","internalType":"uint256"}],"stateMutability":"view"},{"type":"function","name":"pause","inputs":[],"outputs":[],"stateMutability":"nonpayable"},{"type":"function","name":"paused","inputs":[],"outputs":[{"name":"","type":"bool","internalType":"bool"}],"stateMutability":"view"},{"type":"function","name":"previewDeposit","inputs":[{"name":"assets","type":"uint256","internalType":"uint256"}],"outputs":[{"name":"","type":"uint256","internalType":"uint256"}],"stateMutability":"view"},{"type":"function","name":"previewMint","inputs":[{"name":"shares","type":"uint256","internalType":"uint256"}],"outputs":[{"name":"","type":"uint256","internalType":"uint256"}],"stateMutability":"view"},{"type":"function","name":"previewRedeem","inputs":[{"name":"shares","type":"uint256","internalType":"uint256"}],"outputs":[{"name":"","type":"uint256","internalType":"uint256"}],"stateMutability":"view"},{"type":"function","name":"previewWithdraw","inputs":[{"name":"assets","type":"uint256","internalType":"uint256"}],"outputs":[{"name":"","type":"uint256","internalType":"uint256"}],"stateMutability":"view"},{"type":"function","name":"redeem","inputs":[{"name":"shares","type":"uint256","internalType":"uint256"},{"name":"receiver","type":"address","internalType":"address"},{"name":"owner","type":"address","internalType":"address"}],"outputs":[{"name":"","type":"uint256","internalType":"uint256"}],"stateMutability":"nonpayable"},{"type":"function","name":"renounceRole","inputs":[{"name":"role","type":"bytes32","internalType":"bytes32"},{"name":"callerConfirmation","type":"address","internalType":"address"}],"outputs":[],"stateMutability":"nonpayable"},{"type":"function","name":"revokeRole","inputs":[{"name":"role","type":"bytes32","internalType":"bytes32"},{"name":"account","type":"address","internalType":"address"}],"outputs":[],"stateMutability":"nonpayable"},{"type":"function","name":"supportsInterface","inputs":[{"name":"interfaceId","type":"bytes4","internalType":"bytes4"}],"outputs":[{"name":"","type":"bool","internalType":"bool"}],"stateMutability":"view"},{"type":"function","name":"sweepToExchange","inputs":[{"name":"_amount","type":"uint256","internalType":"uint256"}],"outputs":[],"stateMutability":"nonpayable"},{"type":"function","name":"symbol","inputs":[],"outputs":[{"name":"","type":"string","internalType":"string"}],"stateMutability":"view"},{"type":"function","name":"totalAssets","inputs":[],"outputs":[{"name":"","type":"uint256","internalType":"uint256"}],"stateMutability":"view"},{"type":"function","name":"totalSupply","inputs":[],"outputs":[{"name":"","type":"uint256","internalType":"uint256"}],"stateMutability":"view"},{"type":"function","name":"transfer","inputs":[{"name":"to","type":"address","internalType":"address"},{"name":"value","type":"uint256","internalType":"uint256"}],"outputs":[{"name":"","type":"bool","internalType":"bool"}],"stateMutability":"nonpayable"},{"type":"function","name":"transferFrom","inputs":[{"name":"from","type":"address","internalType":"address"},{"name":"to","type":"address","internalType":"address"},{"name":"value","type":"uint256","internalType":"uint256"}],"outputs":[{"name":"","type":"bool","internalType":"bool"}],"stateMutability":"nonpayable"},{"type":"function","name":"unpause","inputs":[],"outputs":[],"stateMutability":"nonpayable"},{"type":"function","name":"updateOffChainAssets","inputs":[{"name":"_amount","type":"uint256","internalType":"uint256"}],"outputs":[],"stateMutability":"nonpayable"},{"type":"function","name":"withdraw","inputs":[{"name":"assets","type":"uint256","internalType":"uint256"},{"name":"receiver","type":"address","internalType":"address"},{"name":"owner","type":"address","internalType":"address"}],"outputs":[{"name":"","type":"uint256","internalType":"uint256"}],"stateMutability":"nonpayable"},{"type":"event","name":"Approval","inputs":[{"name":"owner","type":"address","indexed":true,"internalType":"address"},{"name":"spender","type":"address","indexed":true,"internalType":"address"},{"name":"value","type":"uint256","indexed":false,"internalType":"uint256"}],"anonymous":false},{"type":"event","name":"Deposit","inputs":[{"name":"sender","type":"address","indexed":true,"internalType":"address"},{"name":"owner","type":"address","indexed":true,"internalType":"address"},{"name":"assets","type":"uint256","indexed":false,"internalType":"uint256"},{"name":"shares","type":"uint256","indexed":false,"internalType":"uint256"}],"anonymous":false},{"type":"event","name":"FundsSwept","inputs":[{"name":"amount","type":"uint256","indexed":false,"internalType":"uint256"},{"name":"destination","type":"address","indexed":false,"internalType":"address"}],"anonymous":false},{"type":"event","name":"OffChainAssetsUpdated","inputs":[{"name":"oldAmount","type":"uint256","indexed":false,"internalType":"uint256"},{"name":"newAmount","type":"uint256","indexed":false,"internalType":"uint256"},{"name":"timestamp","type":"uint256","indexed":false,"internalType":"uint256"}],"anonymous":false},{"type":"event","name":"Paused","inputs":[{"name":"account","type":"address","indexed":false,"internalType":"address"}],"anonymous":false},{"type":"event","name":"RoleAdminChanged","inputs":[{"name":"role","type":"bytes32","indexed":true,"internalType":"bytes32"},{"name":"previousAdminRole","type":"bytes32","indexed":true,"internalType":"bytes32"},{"name":"newAdminRole","type":"bytes32","indexed":true,"internalType":"bytes32"}],"anonymous":false},{"type":"event","name":"RoleGranted","inputs":[{"name":"role","type":"bytes32","indexed":true,"internalType":"bytes32"},{"name":"account","type":"address","indexed":true,"internalType":"address"},{"name":"sender","type":"address","indexed":true,"internalType":"address"}],"anonymous":false},{"type":"event","name":"RoleRevoked","inputs":[{"name":"role","type":"bytes32","indexed":true,"internalType":"bytes32"},{"name":"account","type":"address","indexed":true,"internalType":"address"},{"name":"sender","type":"address","indexed":true,"internalType":"address"}],"anonymous":false},{"type":"event","name":"Transfer","inputs":[{"name":"from","type":"address","indexed":true,"internalType":"address"},{"name":"to","type":"address","indexed":true,"internalType":"address"},{"name":"value","type":"uint256","indexed":false,"internalType":"uint256"}],"anonymous":false},{"type":"event","name":"Unpaused","inputs":[{"name":"account","type":"address","indexed":false,"internalType":"address"}],"anonymous":false},{"type":"event","name":"Withdraw","inputs":[{"name":"sender","type":"address","indexed":true,"internalType":"address"},{"name":"receiver","type":"address","indexed":true,"internalType":"address"},{"name":"owner","type":"address","indexed":true,"internalType":"address"},{"name":"assets","type":"uint256","indexed":false,"internalType":"uint256"},{"name":"shares","type":"uint256","indexed":false,"internalType":"uint256"}],"anonymous":false},{"type":"error","name":"AccessControlBadConfirmation","inputs":[]},{"type":"error","name":"AccessControlUnauthorizedAccount","inputs":[{"name":"account","type":"address","internalType":"address"},{"name":"neededRole","type":"bytes32","internalType":"bytes32"}]},{"type":"error","name":"ERC20InsufficientAllowance","inputs":[{"name":"spender","type":"address","internalType":"address"},{"name":"allowance","type":"uint256","internalType":"uint256"},{"name":"needed","type":"uint256","internalType":"uint256"}]},{"type":"error","name":"ERC20InsufficientBalance","inputs":[{"name":"sender","type":"address","internalType":"address"},{"name":"balance","type":"uint256","internalType":"uint256"},{"name":"needed","type":"uint256","internalType":"uint256"}]},{"type":"error","name":"ERC20InvalidApprover","inputs":[{"name":"approver","type":"address","internalType":"address"}]},{"type":"error","name":"ERC20InvalidReceiver","inputs":[{"name":"receiver","type":"address","internalType":"address"}]},{"type":"error","name":"ERC20InvalidSender","inputs":[{"name":"sender","type":"address","internalType":"address"}]},{"type":"error","name":"ERC20InvalidSpender","inputs":[{"name":"spender","type":"address","internalType":"address"}]},{"type":"error","name":"ERC4626ExceededMaxDeposit","inputs":[{"name":"receiver","type":"address","internalType":"address"},{"name":"assets","type":"uint256","internalType":"uint256"},{"name":"max","type":"uint256","internalType":"uint256"}]},{"type":"error","name":"ERC4626ExceededMaxMint","inputs":[{"name":"receiver","type":"address","internalType":"address"},{"name":"shares","type":"uint256","internalType":"uint256"},{"name":"max","type":"uint256","internalType":"uint256"}]},{"type":"error","name":"ERC4626ExceededMaxRedeem","inputs":[{"name":"owner","type":"address","internalType":"address"},{"name":"shares","type":"uint256","internalType":"uint256"},{"name":"max","type":"uint256","internalType":"uint256"}]},{"type":"error","name":"ERC4626ExceededMaxWithdraw","inputs":[{"name":"owner","type":"address","internalType":"address"},{"name":"assets","type":"uint256","internalType":"uint256"},{"name":"max","type":"uint256","internalType":"uint256"}]},{"type":"error","name":"EnforcedPause","inputs":[]},{"type":"error","name":"ExpectedPause","inputs":[]},{"type":"error","name":"ReentrancyGuardReentrantCall","inputs":[]},{"type":"error","name":"SafeERC20FailedOperation","inputs":[{"name":"token","type":"address","internalType":"address"}]}],"bytecode":{"object":"0x60e060405234801562000010575f80fd5b506040516200223f3803806200223f83398101604081905262000033916200049d565b8585856003620000448382620005e1565b506004620000538282620005e1565b5050505f8062000069836200025a60201b60201c565b91509150816200007b5760126200007d565b805b60ff1660a05250506001600160a01b031660805260017f9b779b17422d0df92223018b32b4d1fa46e071723d6817e2486d003becc55f00556001600160a01b038316620001115760405162461bcd60e51b815260206004820152601c60248201527f41646d696e2063616e6e6f74206265207a65726f20616464726573730000000060448201526064015b60405180910390fd5b6001600160a01b038216620001735760405162461bcd60e51b815260206004820152602160248201527f537472617465676973742063616e6e6f74206265207a65726f206164647265736044820152607360f81b606482015260840162000108565b6001600160a01b038116620001db5760405162461bcd60e51b815260206004820152602760248201527f45786368616e676520616464726573732063616e6e6f74206265207a65726f206044820152666164647265737360c81b606482015260840162000108565b620001e75f84620002f3565b50620002147f17a8e30262c1f919c33056d877a3c22b95c2f5e4dac44683c1c2323cd79fbdb083620002f3565b50620002417f65d7a28e3265b37a6474929f336521b332c1681b933f6cb9f3376673440d862a84620002f3565b506001600160a01b031660c05250620006ad9350505050565b5f80806200026760405190565b6040805160048152602481019091526020810180516001600160e01b0390811663313ce56760e01b179091529192505f918291620002a991889190620003a316565b509092509050620002b983604052565b818015620002c8575060203d10155b8015620002d6575060ff8111155b620002e3575f80620002e7565b6001815b94509450505050915091565b5f8281526005602090815260408083206001600160a01b038516845290915281205460ff166200039a575f8381526005602090815260408083206001600160a01b03861684529091529020805460ff19166001179055620003513390565b6001600160a01b0316826001600160a01b0316847f2f8788117e7eff1d82e926ec794901d17c78024a50270940304540a733656f0d60405160405180910390a45060016200039d565b505f5b92915050565b5f805f60405f855160208701885afa92505f51915060205190509250925092565b6001600160a01b0381168114620003d9575f80fd5b50565b634e487b7160e01b5f52604160045260245ffd5b5f82601f83011262000400575f80fd5b81516001600160401b03808211156200041d576200041d620003dc565b604051601f8301601f19908116603f01168101908282118183101715620004485762000448620003dc565b816040528381526020925086602085880101111562000465575f80fd5b5f91505b8382101562000488578582018301518183018401529082019062000469565b5f602085830101528094505050505092915050565b5f805f805f8060c08789031215620004b3575f80fd5b8651620004c081620003c4565b60208801519096506001600160401b0380821115620004dd575f80fd5b620004eb8a838b01620003f0565b9650604089015191508082111562000501575f80fd5b506200051089828a01620003f0565b94505060608701516200052381620003c4565b60808801519093506200053681620003c4565b60a08801519092506200054981620003c4565b809150509295509295509295565b600181811c908216806200056c57607f821691505b6020821081036200058b57634e487b7160e01b5f52602260045260245ffd5b50919050565b601f821115620005dc57805f5260205f20601f840160051c81016020851015620005b85750805b601f840160051c820191505b81811015620005d9575f8155600101620005c4565b50505b505050565b81516001600160401b03811115620005fd57620005fd620003dc565b62000615816200060e845462000557565b8462000591565b602080601f8311600181146200064b575f8415620006335750858301515b5f19600386901b1c1916600185901b178555620006a5565b5f85815260208120601f198616915b828110156200067b578886015182559484019460019091019084016200065a565b50858210156200069957878501515f19600388901b60f8161c191681555b505060018460011b0185555b505050505050565b60805160a05160c051611b2f620007105f395f81816103be015281816107e4015261081a01525f6108c801525f8181610381015281816107c3015281816109ef01528181610aef01528181610c340152818161140901526114bb0152611b2f5ff3fe608060405234801561000f575f80fd5b506004361061024a575f3560e01c80636e553f6511610140578063b460af94116100bf578063ce96cb7711610084578063ce96cb771461050e578063d547741f14610521578063d905777e14610534578063dd62ed3e14610547578063e63ab1e91461057f578063ef8b30f7146104fb575f80fd5b8063b460af94146104cc578063ba087652146104df578063ba9312a8146104f2578063c63d75b6146103e8578063c6e6f592146104fb575f80fd5b806395d89b411161010557806395d89b4114610470578063a217fddf14610478578063a378a3241461047f578063a9059cbb146104a6578063b3d7f6b9146104b9575f80fd5b80636e553f651461040757806370a082311461041a5780638456cb591461044257806391d148541461044a57806394bf804d1461045d575f80fd5b806328833a9f116101cc5780633d9524cb116101915780633d9524cb146103b95780633f4ba83a146103e0578063402d267d146103e85780634cdad506146102a15780635c975abb146103fc575f80fd5b806328833a9f1461032c5780632f2ff15d1461033f578063313ce5671461035257806336568abe1461036c57806338d52e0f1461037f575f80fd5b80630a28a477116102125780630a28a477146102c757806318160ddd146102da57806323b872dd146102e2578063248a9ca3146102f55780632736d57114610317575f80fd5b806301e1d1141461024e57806301ffc9a71461026957806306fdde031461028c57806307a2d13a146102a1578063095ea7b3146102b4575b5f80fd5b6102566105a6565b6040519081526020015b60405180910390f35b61027c61027736600461175c565b6105c1565b6040519015158152602001610260565b6102946105f7565b6040516102609190611783565b6102566102af3660046117cf565b610687565b61027c6102c2366004611801565b610692565b6102566102d53660046117cf565b6106a9565b600254610256565b61027c6102f0366004611829565b6106b5565b6102566103033660046117cf565b5f9081526005602052604090206001015490565b61032a6103253660046117cf565b6106da565b005b61032a61033a3660046117cf565b610750565b61032a61034d366004611862565b610897565b61035a6108c1565b60405160ff9091168152602001610260565b61032a61037a366004611862565b6108ec565b7f00000000000000000000000000000000000000000000000000000000000000005b6040516001600160a01b039091168152602001610260565b6103a17f000000000000000000000000000000000000000000000000000000000000000081565b61032a610924565b6102566103f636600461188c565b505f1990565b60065460ff1661027c565b610256610415366004611862565b610939565b61025661042836600461188c565b6001600160a01b03165f9081526020819052604090205490565b61032a61094c565b61027c610458366004611862565b61097e565b61025661046b366004611862565b6109a8565b6102946109bb565b6102565f81565b6102567f17a8e30262c1f919c33056d877a3c22b95c2f5e4dac44683c1c2323cd79fbdb081565b61027c6104b4366004611801565b6109ca565b6102566104c73660046117cf565b6109d7565b6102566104da3660046118a5565b6109e3565b6102566104ed3660046118a5565b610ad7565b61025660075481565b6102566105093660046117cf565b610bd8565b61025661051c36600461188c565b610be3565b61032a61052f366004611862565b610bf0565b61025661054236600461188c565b610c14565b6102566105553660046118de565b6001600160a01b039182165f90815260016020908152604080832093909416825291909152205490565b6102567f65d7a28e3265b37a6474929f336521b332c1681b933f6cb9f3376673440d862a81565b5f6007546105b2610c31565b6105bc919061191a565b905090565b5f6001600160e01b03198216637965db0b60e01b14806105f157506301ffc9a760e01b6001600160e01b03198316145b92915050565b6060600380546106069061192d565b80601f01602080910402602001604051908101604052809291908181526020018280546106329061192d565b801561067d5780601f106106545761010080835404028352916020019161067d565b820191905f5260205f20905b81548152906001019060200180831161066057829003601f168201915b5050505050905090565b5f6105f1825f610cbb565b5f3361069f818585610cf3565b5060019392505050565b5f6105f1826001610d00565b5f336106c2858285610d2f565b6106cd858585610d92565b60019150505b9392505050565b7f17a8e30262c1f919c33056d877a3c22b95c2f5e4dac44683c1c2323cd79fbdb061070481610def565b60078054908390556040805182815260208101859052428183015290517ff763735ff81e09c9cdefbd8533319faa4bb0c253bf82065323e7fc36f2ab15409181900360600190a1505050565b5f61075a81610def565b610762610df9565b61076a610e27565b5f82116107be5760405162461bcd60e51b815260206004820181905260248201527f416d6f756e74206d7573742062652067726561746572207468616e207a65726f60448201526064015b60405180910390fd5b6108097f00000000000000000000000000000000000000000000000000000000000000007f000000000000000000000000000000000000000000000000000000000000000084610e4d565b604080518381526001600160a01b037f00000000000000000000000000000000000000000000000000000000000000001660208201527f8bd6cee8939c04b07fdaff7566e9c8cd94790d512c84969fd08f296557d56e08910160405180910390a161089360017f9b779b17422d0df92223018b32b4d1fa46e071723d6817e2486d003becc55f0055565b5050565b5f828152600560205260409020600101546108b181610def565b6108bb8383610e82565b50505050565b5f6105bc817f0000000000000000000000000000000000000000000000000000000000000000611965565b6001600160a01b03811633146109155760405163334bd91960e11b815260040160405180910390fd5b61091f8282610f13565b505050565b5f61092e81610def565b610936610f7e565b50565b5f610942610e27565b6106d38383610fd0565b7f65d7a28e3265b37a6474929f336521b332c1681b933f6cb9f3376673440d862a61097681610def565b610936610feb565b5f9182526005602090815260408084206001600160a01b0393909316845291905290205460ff1690565b5f6109b1610e27565b6106d38383611028565b6060600480546106069061192d565b5f3361069f818585610d92565b5f6105f1826001610cbb565b5f6109ec610e27565b837f00000000000000000000000000000000000000000000000000000000000000006040516370a0823160e01b81523060048201526001600160a01b0391909116906370a0823190602401602060405180830381865afa158015610a52573d5f803e3d5ffd5b505050506040513d601f19601f82011682018060405250810190610a76919061197e565b1015610ac45760405162461bcd60e51b815260206004820152601a60248201527f496e73756666696369656e74206c69717569642062756666657200000000000060448201526064016107b5565b610acf848484611043565b949350505050565b5f610ae0610e27565b5f610aea85610687565b9050807f00000000000000000000000000000000000000000000000000000000000000006040516370a0823160e01b81523060048201526001600160a01b0391909116906370a0823190602401602060405180830381865afa158015610b52573d5f803e3d5ffd5b505050506040513d601f19601f82011682018060405250810190610b76919061197e565b1015610bc45760405162461bcd60e51b815260206004820152601a60248201527f496e73756666696369656e74206c69717569642062756666657200000000000060448201526064016107b5565b610bcf858585611090565b95945050505050565b5f6105f1825f610d00565b5f6105f16102af83610c14565b5f82815260056020526040902060010154610c0a81610def565b6108bb8383610f13565b6001600160a01b0381165f908152602081905260408120546105f1565b5f7f00000000000000000000000000000000000000000000000000000000000000006040516370a0823160e01b81523060048201526001600160a01b0391909116906370a0823190602401602060405180830381865afa158015610c97573d5f803e3d5ffd5b505050506040513d601f19601f820116820180604052508101906105bc919061197e565b5f6106d3610cc76105a6565b610cd290600161191a565b610cdd5f600a611a75565b600254610cea919061191a565b859190856110dd565b61091f838383600161111f565b5f6106d3610d0f82600a611a75565b600254610d1c919061191a565b610d246105a6565b610cea90600161191a565b6001600160a01b038381165f908152600160209081526040808320938616835292905220545f198110156108bb5781811015610d8457828183604051637dc7a0d960e11b81526004016107b593929190611a83565b6108bb84848484035f61111f565b6001600160a01b038316610dbb57604051634b637e8f60e11b81525f60048201526024016107b5565b6001600160a01b038216610de45760405163ec442f0560e01b81525f60048201526024016107b5565b61091f8383836111f1565b6109368133611304565b610e0161133d565b60027f9b779b17422d0df92223018b32b4d1fa46e071723d6817e2486d003becc55f0055565b60065460ff1615610e4b5760405163d93c066560e01b815260040160405180910390fd5b565b610e5a838383600161137f565b61091f57604051635274afe760e01b81526001600160a01b03841660048201526024016107b5565b5f610e8d838361097e565b610f0c575f8381526005602090815260408083206001600160a01b03861684529091529020805460ff19166001179055610ec43390565b6001600160a01b0316826001600160a01b0316847f2f8788117e7eff1d82e926ec794901d17c78024a50270940304540a733656f0d60405160405180910390a45060016105f1565b505f6105f1565b5f610f1e838361097e565b15610f0c575f8381526005602090815260408083206001600160a01b0386168085529252808320805460ff1916905551339286917ff6391f5c32d9c69d2a47ea670b442974b53935d1edc7fd64eb21e047a839171b9190a45060016105f1565b610f866113e1565b6006805460ff191690557f5db9ee0a495bf2e6ff9c91a7834c1ba4fdd244a5e8aa4e537bd38aeae4b073aa335b6040516001600160a01b03909116815260200160405180910390a1565b5f5f195f610fdd85610bd8565b9050610acf33858784611404565b610ff3610e27565b6006805460ff191660011790557f62e78cea01bee320cd4e420270b5ea74000d11b0c9f74754ebdbfc544b05a258610fb33390565b5f5f195f611035856109d7565b9050610acf33858388611404565b5f8061104e83610be3565b90508085111561107757828582604051633fa733bb60e21b81526004016107b593929190611a83565b5f611081866106a9565b9050610bcf3386868985611488565b5f8061109b83610c14565b9050808511156110c457828582604051632e52afbb60e21b81526004016107b593929190611a83565b5f6110ce86610687565b9050610bcf338686848a611488565b5f61110a6110ea83611548565b801561110557505f848061110057611100611aa4565b868809115b151590565b611115868686611574565b610bcf919061191a565b6001600160a01b0384166111485760405163e602df0560e01b81525f60048201526024016107b5565b6001600160a01b03831661117157604051634a1406b160e11b81525f60048201526024016107b5565b6001600160a01b038085165f90815260016020908152604080832093871683529290522082905580156108bb57826001600160a01b0316846001600160a01b03167f8c5be1e5ebec7d5bd14f71427d1e84f3dd0314c0f7b2291e5b200ac8c7c3b925846040516111e391815260200190565b60405180910390a350505050565b6001600160a01b03831661121b578060025f828254611210919061191a565b909155506112789050565b6001600160a01b0383165f908152602081905260409020548181101561125a5783818360405163391434e360e21b81526004016107b593929190611a83565b6001600160a01b0384165f9081526020819052604090209082900390555b6001600160a01b038216611294576002805482900390556112b2565b6001600160a01b0382165f9081526020819052604090208054820190555b816001600160a01b0316836001600160a01b03167fddf252ad1be2c89b69c2b068fc378daa952ba7f163c4a11628f55a4df523b3ef836040516112f791815260200190565b60405180910390a3505050565b61130e828261097e565b6108935760405163e2517d3f60e01b81526001600160a01b0382166004820152602481018390526044016107b5565b7f9b779b17422d0df92223018b32b4d1fa46e071723d6817e2486d003becc55f0054600203610e4b57604051633ee5aeb560e01b815260040160405180910390fd5b60405163a9059cbb60e01b5f8181526001600160a01b038616600452602485905291602083604481808b5af1925060015f511483166113d55783831516156113c9573d5f823e3d81fd5b5f873b113d1516831692505b60405250949350505050565b60065460ff16610e4b57604051638dfc202b60e01b815260040160405180910390fd5b6114307f0000000000000000000000000000000000000000000000000000000000000000853085611624565b61143a838261165a565b826001600160a01b0316846001600160a01b03167fdcbc1c05240f31ff3ad067ef1ee35ce4997762752e3a095284754544f4c709d784846040516111e3929190918252602082015260400190565b826001600160a01b0316856001600160a01b0316146114ac576114ac838683610d2f565b6114b6838261168e565b6114e17f00000000000000000000000000000000000000000000000000000000000000008584610e4d565b826001600160a01b0316846001600160a01b0316866001600160a01b03167ffbde797d201c681b91056529119e0b02407c7bb96a4a2c75c01fc9667232c8db8585604051611539929190918252602082015260400190565b60405180910390a45050505050565b5f600282600381111561155d5761155d611ab8565b6115679190611acc565b60ff166001149050919050565b5f805f61158186866116c2565b91509150815f036115a55783818161159b5761159b611aa4565b04925050506106d3565b8184116115bc576115bc60038515026011186116de565b5f848688095f868103871696879004966002600389028118808a02820302808a02820302808a02820302808a02820302808a02820302808a02909103029181900381900460010185841190960395909502919093039390930492909217029150509392505050565b6116328484848460016116ef565b6108bb57604051635274afe760e01b81526001600160a01b03851660048201526024016107b5565b6001600160a01b0382166116835760405163ec442f0560e01b81525f60048201526024016107b5565b6108935f83836111f1565b6001600160a01b0382166116b757604051634b637e8f60e11b81525f60048201526024016107b5565b610893825f836111f1565b5f805f1983850993909202808410938190039390930393915050565b634e487b715f52806020526024601cfd5b6040516323b872dd60e01b5f8181526001600160a01b038781166004528616602452604485905291602083606481808c5af1925060015f5114831661174b57838315161561173f573d5f823e3d81fd5b5f883b113d1516831692505b604052505f60605295945050505050565b5f6020828403121561176c575f80fd5b81356001600160e01b0319811681146106d3575f80fd5b5f602080835283518060208501525f5b818110156117af57858101830151858201604001528201611793565b505f604082860101526040601f19601f8301168501019250505092915050565b5f602082840312156117df575f80fd5b5035919050565b80356001600160a01b03811681146117fc575f80fd5b919050565b5f8060408385031215611812575f80fd5b61181b836117e6565b946020939093013593505050565b5f805f6060848603121561183b575f80fd5b611844846117e6565b9250611852602085016117e6565b9150604084013590509250925092565b5f8060408385031215611873575f80fd5b82359150611883602084016117e6565b90509250929050565b5f6020828403121561189c575f80fd5b6106d3826117e6565b5f805f606084860312156118b7575f80fd5b833592506118c7602085016117e6565b91506118d5604085016117e6565b90509250925092565b5f80604083850312156118ef575f80fd5b6118f8836117e6565b9150611883602084016117e6565b634e487b7160e01b5f52601160045260245ffd5b808201808211156105f1576105f1611906565b600181811c9082168061194157607f821691505b60208210810361195f57634e487b7160e01b5f52602260045260245ffd5b50919050565b60ff81811683821601908111156105f1576105f1611906565b5f6020828403121561198e575f80fd5b5051919050565b600181815b808511156119cf57815f19048211156119b5576119b5611906565b808516156119c257918102915b93841c939080029061199a565b509250929050565b5f826119e5575060016105f1565b816119f157505f6105f1565b8160018114611a075760028114611a1157611a2d565b60019150506105f1565b60ff841115611a2257611a22611906565b50506001821b6105f1565b5060208310610133831016604e8410600b8410161715611a50575081810a6105f1565b611a5a8383611995565b805f1904821115611a6d57611a6d611906565b029392505050565b5f6106d360ff8416836119d7565b6001600160a01b039390931683526020830191909152604082015260600190565b634e487b7160e01b5f52601260045260245ffd5b634e487b7160e01b5f52602160045260245ffd5b5f60ff831680611aea57634e487b7160e01b5f52601260045260245ffd5b8060ff8416069150509291505056fea2646970667358221220c26ce2076d6b91c511c5967e8878f46e2ee8d5974bd8fc863f8b5c312b66e6f764736f6c63430008180033","linkReferences":{}},"methodIdentifiers":{"DEFAULT_ADMIN_ROLE()":"a217fddf","PAUSER_ROLE()":"e63ab1e9","STRATEGIST_ROLE()":"a378a324","allowance(address,address)":"dd62ed3e","approve(address,uint256)":"095ea7b3","asset()":"38d52e0f","balanceOf(address)":"70a08231","convertToAssets(uint256)":"07a2d13a","convertToShares(uint256)":"c6e6f592","decimals()":"313ce567","deposit(uint256,address)":"6e553f65","exchangeDepositAddress()":"3d9524cb","getRoleAdmin(bytes32)":"248a9ca3","grantRole(bytes32,address)":"2f2ff15d","hasRole(bytes32,address)":"91d14854","maxDeposit(address)":"402d267d","maxMint(address)":"c63d75b6","maxRedeem(address)":"d905777e","maxWithdraw(address)":"ce96cb77","mint(uint256,address)":"94bf804d","name()":"06fdde03","offChainAssets()":"ba9312a8","pause()":"8456cb59","paused()":"5c975abb","previewDeposit(uint256)":"ef8b30f7","previewMint(uint256)":"b3d7f6b9","previewRedeem(uint256)":"4cdad506","previewWithdraw(uint256)":"0a28a477","redeem(uint256,address,address)":"ba087652","renounceRole(bytes32,address)":"36568abe","revokeRole(bytes32,address)":"d547741f","supportsInterface(bytes4)":"01ffc9a7","sweepToExchange(uint256)":"28833a9f","symbol()":"95d89b41","totalAssets()":"01e1d114","totalSupply()":"18160ddd","transfer(address,uint256)":"a9059cbb","transferFrom(address,address,uint256)":"23b872dd","unpause()":"3f4ba83a","updateOffChainAssets(uint256)":"2736d571","withdraw(uint256,address,address)":"b460af94"},"id":42}