{"abi":[{"type":"constructor","inputs":[{"name":"_kusd","type":"address","internalType":"address"},{"name":"_vault","type":"address","internalType":"address"},{"name":"_admin","type":"address","internalType":"address"}],"stateMutability":"nonpayable"},{"type":"function","name":"DEFAULT_ADMIN_ROLE","inputs":[],"outputs":[{"name":"","type":"bytes32","internalType":"bytes32"}],"stateMutability":"view"},{"type":"function","name":"LIQUIDATION_BONUS","inputs":[],"outputs":[{"name":"","type":"uint256","internalType":"uint256"}],"stateMutability":"view"},{"type":"function","name":"LIQUIDATION_THRESHOLD","inputs":[],"outputs":[{"name":"","type":"uint256","internalType":"uint256"}],"stateMutability":"view"},{"type":"function","name":"MANAGER_ROLE","inputs":[],"outputs":[{"name":"","type":"bytes32","internalType":"bytes32"}],"stateMutability":"view"},{"type":"function","name":"MINT_COLLATERAL_RATIO","inputs":[],"outputs":[{"name":"","type":"uint256","internalType":"uint256"}],"stateMutability":"view"},{"type":"function","name":"PRECISION","inputs":[],"outputs":[{"name":"","type":"uint256","internalType":"uint256"}],"stateMutability":"view"},{"type":"function","name":"burn","inputs":[{"name":"kusdAmount","type":"uint256","internalType":"uint256"},{"name":"kLPAmount","type":"uint256","internalType":"uint256"}],"outputs":[],"stateMutability":"nonpayable"},{"type":"function","name":"getKLPPrice","inputs":[],"outputs":[{"name":"","type":"uint256","internalType":"uint256"}],"stateMutability":"view"},{"type":"function","name":"getRoleAdmin","inputs":[{"name":"role","type":"bytes32","internalType":"bytes32"}],"outputs":[{"name":"","type":"bytes32","internalType":"bytes32"}],"stateMutability":"view"},{"type":"function","name":"grantRole","inputs":[{"name":"role","type":"bytes32","internalType":"bytes32"},{"name":"account","type":"address","internalType":"address"}],"outputs":[],"stateMutability":"nonpayable"},{"type":"function","name":"hasRole","inputs":[{"name":"role","type":"bytes32","internalType":"bytes32"},{"name":"account","type":"address","internalType":"address"}],"outputs":[{"name":"","type":"bool","internalType":"bool"}],"stateMutability":"view"},{"type":"function","name":"isHealthy","inputs":[{"name":"user","type":"address","internalType":"address"},{"name":"threshold","type":"uint256","internalType":"uint256"}],"outputs":[{"name":"","type":"bool","internalType":"bool"}],"stateMutability":"view"},{"type":"function","name":"isHealthy","inputs":[{"name":"user","type":"address","internalType":"address"}],"outputs":[{"name":"","type":"bool","internalType":"bool"}],"stateMutability":"view"},{"type":"function","name":"kusd","inputs":[],"outputs":[{"name":"","type":"address","internalType":"contract kUSD"}],"stateMutability":"view"},{"type":"function","name":"liquidate","inputs":[{"name":"user","type":"address","internalType":"address"}],"outputs":[],"stateMutability":"nonpayable"},{"type":"function","name":"mint","inputs":[{"name":"kLPAmount","type":"uint256","internalType":"uint256"},{"name":"kusdAmount","type":"uint256","internalType":"uint256"}],"outputs":[],"stateMutability":"nonpayable"},{"type":"function","name":"pause","inputs":[],"outputs":[],"stateMutability":"nonpayable"},{"type":"function","name":"paused","inputs":[],"outputs":[{"name":"","type":"bool","internalType":"bool"}],"stateMutability":"view"},{"type":"function","name":"positions","inputs":[{"name":"","type":"address","internalType":"address"}],"outputs":[{"name":"collateralAmount","type":"uint256","internalType":"uint256"},{"name":"debtAmount","type":"uint256","internalType":"uint256"}],"stateMutability":"view"},{"type":"function","name":"renounceRole","inputs":[{"name":"role","type":"bytes32","internalType":"bytes32"},{"name":"callerConfirmation","type":"address","internalType":"address"}],"outputs":[],"stateMutability":"nonpayable"},{"type":"function","name":"revokeRole","inputs":[{"name":"role","type":"bytes32","internalType":"bytes32"},{"name":"account","type":"address","internalType":"address"}],"outputs":[],"stateMutability":"nonpayable"},{"type":"function","name":"supportsInterface","inputs":[{"name":"interfaceId","type":"bytes4","internalType":"bytes4"}],"outputs":[{"name":"","type":"bool","internalType":"bool"}],"stateMutability":"view"},{"type":"function","name":"unpause","inputs":[],"outputs":[],"stateMutability":"nonpayable"},{"type":"function","name":"vault","inputs":[],"outputs":[{"name":"","type":"address","internalType":"contract KerneVault"}],"stateMutability":"view"},{"type":"event","name":"Burned","inputs":[{"name":"user","type":"address","indexed":true,"internalType":"address"},{"name":"collateralAmount","type":"uint256","indexed":false,"internalType":"uint256"},{"name":"kusdAmount","type":"uint256","indexed":false,"internalType":"uint256"}],"anonymous":false},{"type":"event","name":"Liquidated","inputs":[{"name":"user","type":"address","indexed":true,"internalType":"address"},{"name":"liquidator","type":"address","indexed":true,"internalType":"address"},{"name":"collateralLiquidated","type":"uint256","indexed":false,"internalType":"uint256"},{"name":"debtRepaid","type":"uint256","indexed":false,"internalType":"uint256"}],"anonymous":false},{"type":"event","name":"Minted","inputs":[{"name":"user","type":"address","indexed":true,"internalType":"address"},{"name":"collateralAmount","type":"uint256","indexed":false,"internalType":"uint256"},{"name":"kusdAmount","type":"uint256","indexed":false,"internalType":"uint256"}],"anonymous":false},{"type":"event","name":"Paused","inputs":[{"name":"account","type":"address","indexed":false,"internalType":"address"}],"anonymous":false},{"type":"event","name":"RoleAdminChanged","inputs":[{"name":"role","type":"bytes32","indexed":true,"internalType":"bytes32"},{"name":"previousAdminRole","type":"bytes32","indexed":true,"internalType":"bytes32"},{"name":"newAdminRole","type":"bytes32","indexed":true,"internalType":"bytes32"}],"anonymous":false},{"type":"event","name":"RoleGranted","inputs":[{"name":"role","type":"bytes32","indexed":true,"internalType":"bytes32"},{"name":"account","type":"address","indexed":true,"internalType":"address"},{"name":"sender","type":"address","indexed":true,"internalType":"address"}],"anonymous":false},{"type":"event","name":"RoleRevoked","inputs":[{"name":"role","type":"bytes32","indexed":true,"internalType":"bytes32"},{"name":"account","type":"address","indexed":true,"internalType":"address"},{"name":"sender","type":"address","indexed":true,"internalType":"address"}],"anonymous":false},{"type":"event","name":"Unpaused","inputs":[{"name":"account","type":"address","indexed":false,"internalType":"address"}],"anonymous":false},{"type":"error","name":"AccessControlBadConfirmation","inputs":[]},{"type":"error","name":"AccessControlUnauthorizedAccount","inputs":[{"name":"account","type":"address","internalType":"address"},{"name":"neededRole","type":"bytes32","internalType":"bytes32"}]},{"type":"error","name":"EnforcedPause","inputs":[]},{"type":"error","name":"ExpectedPause","inputs":[]},{"type":"error","name":"ReentrancyGuardReentrantCall","inputs":[]},{"type":"error","name":"SafeERC20FailedOperation","inputs":[{"name":"token","type":"address","internalType":"address"}]}],"bytecode":{"object":"0x60c060405234801562000010575f80fd5b506040516200149638038062001496833981016040819052620000339162000175565b60017f9b779b17422d0df92223018b32b4d1fa46e071723d6817e2486d003becc55f00556001600160a01b03808416608052821660a052620000765f82620000ad565b50620000a37f241ecf16d79d0f8dbfb92cbc07fe17840425976cf0667f022fe9877caa831b0882620000ad565b50505050620001bc565b5f828152602081815260408083206001600160a01b038516845290915281205460ff1662000150575f838152602081815260408083206001600160a01b03861684529091529020805460ff19166001179055620001073390565b6001600160a01b0316826001600160a01b0316847f2f8788117e7eff1d82e926ec794901d17c78024a50270940304540a733656f0d60405160405180910390a450600162000153565b505f5b92915050565b80516001600160a01b038116811462000170575f80fd5b919050565b5f805f6060848603121562000188575f80fd5b620001938462000159565b9250620001a36020850162000159565b9150620001b36040850162000159565b90509250925092565b60805160a051611280620002165f395f81816103530152818161041e0152818161075a01528181610b5201528181610be50152610c6801525f818161019901528181610508015281816106ee01526109e201526112805ff3fe608060405234801561000f575f80fd5b5060043610610153575f3560e01c80638456cb59116100bf578063d4d9bc6811610079578063d4d9bc68146102f1578063d547741f14610304578063e0cbf4f414610317578063eb0e0e671461031f578063ec87621c14610327578063fbfa77cf1461034e575f80fd5b80638456cb59146102a557806390a8ae9b146102ad57806391d14854146102b5578063a217fddf146102c8578063aaf5eb68146102cf578063b390c0ab146102de575f80fd5b80633574d4c4116101105780633574d4c41461022957806336568abe146102315780633f4ba83a1461024457806353ebb8991461024c57806355f575101461025f5780635c975abb1461029a575f80fd5b806301ffc9a7146101575780631b2ef1ca1461017f5780632398a4d714610194578063248a9ca3146101d35780632f2ff15d146102035780632f86556814610216575b5f80fd5b61016a6101653660046110b8565b610375565b60405190151581526020015b60405180910390f35b61019261018d3660046110e6565b6103ab565b005b6101bb7f000000000000000000000000000000000000000000000000000000000000000081565b6040516001600160a01b039091168152602001610176565b6101f56101e1366004611106565b5f9081526020819052604090206001015490565b604051908152602001610176565b610192610211366004611138565b6105be565b610192610224366004611162565b6105e8565b6101f5600581565b61019261023f366004611138565b6107e6565b61019261081e565b61016a61025a36600461117b565b610830565b61028561026d366004611162565b60026020525f90815260409020805460019091015482565b60408051928352602083019190915201610176565b60015460ff1661016a565b6101926108c3565b6101f5607881565b61016a6102c3366004611138565b6108f5565b6101f55f81565b6101f5670de0b6b3a764000081565b6101926102ec3660046110e6565b61091d565b61016a6102ff366004611162565b610bb1565b610192610312366004611138565b610bbd565b6101f5610be1565b6101f5609681565b6101f57f241ecf16d79d0f8dbfb92cbc07fe17840425976cf0667f022fe9877caa831b0881565b6101bb7f000000000000000000000000000000000000000000000000000000000000000081565b5f6001600160e01b03198216637965db0b60e01b14806103a557506301ffc9a760e01b6001600160e01b03198316145b92915050565b6103b3610d23565b6103bb610d3e565b5f8211806103c857505f81115b61040b5760405162461bcd60e51b815260206004820152600f60248201526e496e76616c696420616d6f756e747360881b60448201526064015b60405180910390fd5b811561046a576104466001600160a01b037f000000000000000000000000000000000000000000000000000000000000000016333085610d64565b335f90815260026020526040812080548492906104649084906111b7565b90915550505b801561056857335f90815260026020526040812060010180548392906104919084906111b7565b909155506104a0905033610bb1565b6104ec5760405162461bcd60e51b815260206004820152601760248201527f496e73756666696369656e7420636f6c6c61746572616c0000000000000000006044820152606401610402565b6040516340c10f1960e01b8152336004820152602481018290527f00000000000000000000000000000000000000000000000000000000000000006001600160a01b0316906340c10f19906044015f604051808303815f87803b158015610551575f80fd5b505af1158015610563573d5f803e3d5ffd5b505050505b604080518381526020810183905233917f25b428dfde728ccfaddad7e29e4ac23c24ed7fd1a6e3e3f91894a9a073f5dfff91015b60405180910390a26105ba60015f8051602061122b83398151915255565b5050565b5f828152602081905260409020600101546105d881610d9a565b6105e28383610da4565b50505050565b6105f0610d23565b6105fb816078610830565b1561063e5760405162461bcd60e51b8152602060048201526013602482015272506f736974696f6e206973206865616c74687960681b6044820152606401610402565b6001600160a01b0381165f9081526002602052604081206001810154909160646106696005826111b7565b61067390846111ca565b61067d91906111e1565b90505f610688610be1565b61069a670de0b6b3a7640000846111ca565b6106a491906111e1565b84549091508111156106b4575082545b5f600185018190558454829186916106cd908490611200565b909155505060405163079cc67960e41b8152336004820152602481018490527f00000000000000000000000000000000000000000000000000000000000000006001600160a01b0316906379cc6790906044015f604051808303815f87803b158015610737575f80fd5b505af1158015610749573d5f803e3d5ffd5b506107839250506001600160a01b037f00000000000000000000000000000000000000000000000000000000000000001690503383610e33565b604080518281526020810185905233916001600160a01b038816917f1f0c6615429d1cdae0dfa233abf91d3b31cdbdd82c8081389832a61e1072f1ea910160405180910390a3505050506107e360015f8051602061122b83398151915255565b50565b6001600160a01b038116331461080f5760405163334bd91960e11b815260040160405180910390fd5b6108198282610e68565b505050565b5f61082881610d9a565b6107e3610ed1565b6001600160a01b0382165f908152600260209081526040808320815180830190925280548252600101549181018290529082036108715760019150506103a5565b5f670de0b6b3a7640000610883610be1565b835161088f91906111ca565b61089991906111e1565b90508382602001518260646108ae91906111ca565b6108b891906111e1565b101595945050505050565b7f241ecf16d79d0f8dbfb92cbc07fe17840425976cf0667f022fe9877caa831b086108ed81610d9a565b6107e3610f23565b5f918252602082815260408084206001600160a01b0393909316845291905290205460ff1690565b610925610d23565b5f82118061093257505f81115b6109705760405162461bcd60e51b815260206004820152600f60248201526e496e76616c696420616d6f756e747360881b6044820152606401610402565b8115610a6957335f908152600260205260409020600101548211156109c65760405162461bcd60e51b815260206004820152600c60248201526b115e18d959591cc81919589d60a21b6044820152606401610402565b60405163079cc67960e41b8152336004820152602481018390527f00000000000000000000000000000000000000000000000000000000000000006001600160a01b0316906379cc6790906044015f604051808303815f87803b158015610a2b575f80fd5b505af1158015610a3d573d5f803e3d5ffd5b5050335f9081526002602052604081206001018054869450909250610a63908490611200565b90915550505b8015610b7957335f90815260026020526040902054811115610ac25760405162461bcd60e51b8152602060048201526012602482015271115e18d959591cc818dbdb1b185d195c985b60721b6044820152606401610402565b335f9081526002602052604081208054839290610ae0908490611200565b90915550610aef905033610bb1565b610b455760405162461bcd60e51b815260206004820152602160248201527f496e73756666696369656e7420636f6c6c61746572616c2072656d61696e696e6044820152606760f81b6064820152608401610402565b610b796001600160a01b037f0000000000000000000000000000000000000000000000000000000000000000163383610e33565b604080518281526020810184905233917f23ff0e75edf108e3d0392d92e13e8c8a868ef19001bd49f9e94876dc46dff87f910161059c565b5f6103a5826096610830565b5f82815260208190526040902060010154610bd781610d9a565b6105e28383610e68565b5f807f00000000000000000000000000000000000000000000000000000000000000006001600160a01b03166301e1d1146040518163ffffffff1660e01b8152600401602060405180830381865afa158015610c3f573d5f803e3d5ffd5b505050506040513d601f19601f82011682018060405250810190610c639190611213565b90505f7f00000000000000000000000000000000000000000000000000000000000000006001600160a01b03166318160ddd6040518163ffffffff1660e01b8152600401602060405180830381865afa158015610cc2573d5f803e3d5ffd5b505050506040513d601f19601f82011682018060405250810190610ce69190611213565b9050805f03610cff57670de0b6b3a76400009250505090565b80610d12670de0b6b3a7640000846111ca565b610d1c91906111e1565b9250505090565b610d2b610f5e565b60025f8051602061122b83398151915255565b60015460ff1615610d625760405163d93c066560e01b815260040160405180910390fd5b565b610d72848484846001610f8d565b6105e257604051635274afe760e01b81526001600160a01b0385166004820152602401610402565b6107e38133610ffa565b5f610daf83836108f5565b610e2c575f838152602081815260408083206001600160a01b03861684529091529020805460ff19166001179055610de43390565b6001600160a01b0316826001600160a01b0316847f2f8788117e7eff1d82e926ec794901d17c78024a50270940304540a733656f0d60405160405180910390a45060016103a5565b505f6103a5565b610e408383836001611033565b61081957604051635274afe760e01b81526001600160a01b0384166004820152602401610402565b5f610e7383836108f5565b15610e2c575f838152602081815260408083206001600160a01b0386168085529252808320805460ff1916905551339286917ff6391f5c32d9c69d2a47ea670b442974b53935d1edc7fd64eb21e047a839171b9190a45060016103a5565b610ed9611095565b6001805460ff191690557f5db9ee0a495bf2e6ff9c91a7834c1ba4fdd244a5e8aa4e537bd38aeae4b073aa335b6040516001600160a01b03909116815260200160405180910390a1565b610f2b610d3e565b6001805460ff1916811790557f62e78cea01bee320cd4e420270b5ea74000d11b0c9f74754ebdbfc544b05a25833610f06565b5f8051602061122b83398151915254600203610d6257604051633ee5aeb560e01b815260040160405180910390fd5b6040516323b872dd60e01b5f8181526001600160a01b038781166004528616602452604485905291602083606481808c5af1925060015f51148316610fe9578383151615610fdd573d5f823e3d81fd5b5f883b113d1516831692505b604052505f60605295945050505050565b61100482826108f5565b6105ba5760405163e2517d3f60e01b81526001600160a01b038216600482015260248101839052604401610402565b60405163a9059cbb60e01b5f8181526001600160a01b038616600452602485905291602083604481808b5af1925060015f5114831661108957838315161561107d573d5f823e3d81fd5b5f873b113d1516831692505b60405250949350505050565b60015460ff16610d6257604051638dfc202b60e01b815260040160405180910390fd5b5f602082840312156110c8575f80fd5b81356001600160e01b0319811681146110df575f80fd5b9392505050565b5f80604083850312156110f7575f80fd5b50508035926020909101359150565b5f60208284031215611116575f80fd5b5035919050565b80356001600160a01b0381168114611133575f80fd5b919050565b5f8060408385031215611149575f80fd5b823591506111596020840161111d565b90509250929050565b5f60208284031215611172575f80fd5b6110df8261111d565b5f806040838503121561118c575f80fd5b6111958361111d565b946020939093013593505050565b634e487b7160e01b5f52601160045260245ffd5b808201808211156103a5576103a56111a3565b80820281158282048414176103a5576103a56111a3565b5f826111fb57634e487b7160e01b5f52601260045260245ffd5b500490565b818103818111156103a5576103a56111a3565b5f60208284031215611223575f80fd5b505191905056fe9b779b17422d0df92223018b32b4d1fa46e071723d6817e2486d003becc55f00a2646970667358221220e2ba977c74b1d8d13f7727e6aa30d1b1c45faffb0676555b423cd8fc9d748cb864736f6c63430008180033","linkReferences":{}},"methodIdentifiers":{"DEFAULT_ADMIN_ROLE()":"a217fddf","LIQUIDATION_BONUS()":"3574d4c4","LIQUIDATION_THRESHOLD()":"90a8ae9b","MANAGER_ROLE()":"ec87621c","MINT_COLLATERAL_RATIO()":"eb0e0e67","PRECISION()":"aaf5eb68","burn(uint256,uint256)":"b390c0ab","getKLPPrice()":"e0cbf4f4","getRoleAdmin(bytes32)":"248a9ca3","grantRole(bytes32,address)":"2f2ff15d","hasRole(bytes32,address)":"91d14854","isHealthy(address)":"d4d9bc68","isHealthy(address,uint256)":"53ebb899","kusd()":"2398a4d7","liquidate(address)":"2f865568","mint(uint256,uint256)":"1b2ef1ca","pause()":"8456cb59","paused()":"5c975abb","positions(address)":"55f57510","renounceRole(bytes32,address)":"36568abe","revokeRole(bytes32,address)":"d547741f","supportsInterface(bytes4)":"01ffc9a7","unpause()":"3f4ba83a","vault()":"fbfa77cf"},"id":56}